:020000040000FA
:040000007AEF02F0A1
:1002D000CDCC1C41838283901200838083921200D4
:1002E000000E026E0A0E016E8EEC01F01200000E7E
:1002F0000D6E000E0C6E000E0F6E080E0E6EFAECF8
:1003000002F01200036E70EC01F00001FF510318BF
:10031000816E8386839483888398120093EF01F023
:100320000106D8A0020601500210D8A49AEF01F0ED
:100330009CEF01F090EF01F01200036E70EC01F001
:1003400003C081FF839683948388000E026E010EA2
:10035000016E8EEC01F0839812000001FD2BBF0EA0
:10036000FD65B5EF01F0B7EF01F0B9EF01F0B80EA0
:10037000FD6F000EA0EC02F01200056E080E056085
:10038000C4EF01F0C6EF01F0CDEF01F00550B80F5A
:100390000001FD6F000EA0EC02F01200FF0E056ED2
:1003A000FF0E066EFF0E076E7F0E086E05C001F091
:1003B00006C002F007C003F008C004F01200EAEF24
:1003C00001F0010E026E2C0E016E8EEC01F00306A0
:1003D000D8A0040603500410D8A4F1EF01F0F3EF05
:1003E00001F0E1EF01F01200FFEF01F0030E046EE7
:1003F000E80E036EDFEC01F00506D8A006060550F6
:100400000610D8A406EF02F008EF02F0F6EF01F0B4
:10041000120014EF02F00AC0D9FF0BC0DAFFDF5060
:1004200066EC05F00A4A0B2A0AC0D9FF0BC0DAFFB6
:10043000DF50D8A41EEF02F020EF02F00BEF02F025
:10044000120000C205F001C206F002C207F003C2AA
:1004500008F001C005F002C006F003C007F004C0B8
:1004600008F0089E05C001F006C002F007C003F0C6
:1004700008C004F012004650471048104910D8B484
:1004800044EF02F046EF02F04EEF02F0000E461A83
:10049000000E471A000E481A800E491A46C046F050
:1004A00047C047F048C048F049C049F01200000E6C
:1004B0002E1A000E2F1A000E301A800E311A2AC082
:1004C00001F02BC002F02CC003F02DC004F02EC0B0
:1004D00005F02FC006F030C007F031C008F0C3ECC3
:1004E00014F001C02AF002C02BF003C02CF004C0AD
:1004F0002DF01200D00EF66E020EF76E000EF86EA2
:1005000002EE26F010EE04F00900F5CFEEFFE55004
:10051000E150FAE102EE00F0260EEE6AE806FDE197
:100520000101FF6BFE6BFD6BFC6B00EEF8F0080E3B
:10053000EE6AE806FDE1000EF86E00012CEF1FF0F8
:10054000046E0450D8B4A7EF02F0A9EF02F0B1EFA7
:1005500002F00404D8A4AFEF02F0B1EF02F0CBEF49
:1005600002F00450D8A4B7EF02F0B9EF02F0BDEFEB
:1005700002F06AEC01F0BFEF02F06DEC01F004C094
:10058000FCF0400E0001FE6FFD519DEC01F00001FA
:10059000FE519DEC01F01200000E936EE00E9516D8
:1005A0006AEC01F03F0E9DEC01F06DEC01F03F0EA6
:1005B0009DEC01F0000E046E0A0E036EDFEC01F0FC
:1005C0006AEC01F0C00E9DEC01F06DEC01F0C00E84
:1005D0009DEC01F0000EA0EC02F063EC03F0000EC5
:1005E0000001FC6FB80EFD6F400EFE6F000EA0EC18
:1005F00002F012000CC011F00DC012F01EEF03F05B
:10060000000E146E000E136E13C009F0115014EC9E
:1006100004F0000E82EC01F0134A142A14BE1AEF03
:1006200003F0145009E1800E135CD8A01AEF03F018
:100630001CEF03F004EF03F0114A122A0E50115C74
:100640001250800A106E0F50800A1058D8A02BEF5D
:1006500003F02DEF03F000EF03F01200000E096E1F
:10066000000E0A6E000E0B6E000E0C6E01A03BEF2A
:1006700003F03DEF03F045EF03F005500926065067
:100680000A2207500B2208500C22D8900536063655
:1006900007360836D8900432033202320132015054
:1006A000021003100410D8A458EF03F05AEF03F01F
:1006B00036EF03F009C001F00AC002F00BC003F0EE
:1006C0000CC004F01200000E076E6AEC01F0400E40
:1006D0009DEC01F00750B80F9DEC01F0000E066E86
:1006E000400E0618D8A477EF03F079EF03F082EFFD
:1006F00003F06DEC01F0400E9DEC01F00750B80FD7
:100700009DEC01F0000E82EC01F0062A7F0E0664DB
:100710008CEF03F08EEF03F070EF03F0072A070E63
:10072000076495EF03F097EF03F065EF03F0000E19
:10073000BDEC01F01200000E076E6AEC01F0400EF5
:100740009DEC01F00750B80F9DEC01F0000E066E15
:10075000400E0618D8A4AFEF03F0B1EF03F0BAEFE4
:1007600003F06DEC01F0400E9DEC01F00750B80F66
:100770009DEC01F004C0F6FF05C0F7FF0800F5503E
:1007800082EC01F0044A052A062A7F0E0664CBEFAC
:1007900003F0CDEF03F0A8EF03F0072A070E07647C
:1007A000D4EF03F0D6EF03F09DEF03F012001F50DB
:1007B0001B5C016E20501C58026E21501D58036EA8
:1007C00022501E58046E27502B5C056E28502C5862
:1007D000066E29502D58076E2A502E58086E2EECA2
:1007E00003F001C00DF002C00EF003C00FF004C012
:1007F00010F01F50235C116E20502458126E2150AF
:100800002558136E22502658146EE3EC06F027503C
:100810000D241B6E28500E201C6E29500F201D6EBB
:100820002A5010201E6E12000A6E080E0A601BEF7E
:1008300004F01DEF04F059EF04F0810E096023EF7E
:1008400004F025EF04F059EF04F009C001F0026A4A
:10085000000E046E400E036E04EC05F001500B6EAA
:1008600009C001F0026A000E046E3F0E036EACEC8C
:1008700004F00150096E0B50D8A441EF04F043EF8F
:1008800004F047EF04F06AEC01F049EF04F06DEC7E
:1008900001F00BC0FCF00A50B8090001FD6F0950CF
:1008A0004009FE6FFE519DEC01F00001FD519DECF1
:1008B00001F01200000E096E000E0A6E000E0B6EA3
:1008C000000E0C6E0550061007100810D8B46BEF20
:1008D00004F06DEF04F0A3EF04F0010E0D6E77EF5E
:1008E00004F0D89005360636073608360D2A08AECD
:1008F0007CEF04F07EEF04F071EF04F0D89009363D
:100900000A360B360C360550015C0650025807506B
:10091000035808500458D8A090EF04F092EF04F068
:100920009BEF04F00550015E0650025A0750035A2F
:100930000850045A0980D89008320732063205322E
:100940000D2E7EEF04F009C001F00AC002F00BC0CA
:1009500003F00CC004F01200000E066E02BEB5EFEC
:1009600004F0B3EF04F0BBEF04F0016C021ED8B04A
:10097000022A010E066E04BEC2EF04F0C0EF04F0BE
:10098000C6EF04F0036C041ED8B0042A0350041010
:10099000D8B4CDEF04F0CFEF04F0F3EF04F0010E84
:1009A000056ED7EF04F0D89003360436052A04AE5E
:1009B000DCEF04F0DEEF04F0D3EF04F00350015C51
:1009C00004500258D8A0E7EF04F0E9EF04F0EDEF8F
:1009D00004F00350015E0450025AD89004320332EE
:1009E000052EDEEF04F00650D8B4F9EF04F0FBEF6B
:1009F00004F0FFEF04F0016C021ED8B0022A01C01F
:100A000001F002C002F01200000E066E04BE0DEFEF
:100A100005F00BEF05F013EF05F0036C041ED8B0E2
:100A2000042A010E066E02BE1AEF05F018EF05F05B
:100A300020EF05F0016C021ED8B0022A010E061A42
:100A4000000E086E000E076E03500410D8B42BEF92
:100A500005F02DEF05F055EF05F0010E056E35EFB1
:100A600005F0D89003360436052A04AE3AEF05F0B7
:100A70003CEF05F031EF05F0D8900736083603500B
:100A8000015C04500258D8A048EF05F04AEF05F089
:100A90004FEF05F00350015E0450025A0780D890D2
:100AA00004320332052E3CEF05F00650D8B45BEF5C
:100AB00005F05DEF05F061EF05F0076C081ED8B09A
:100AC000082A07C001F008C002F01200096E000EEB
:100AD000086E0001FC05D8A470EF05F072EF05F078
:100AE00087EF05F0FE51056E066A050E0526000E1D
:100AF000062206BE87EF05F0065007E1800E055C72
:100B0000D8B085EF05F087EF05F090EF05F00A0EFD
:100B10000918D8A48EEF05F090EF05F092EF05F0DC
:100B2000ADEC01F00A0E0918D8B499EF05F09BEF6F
:100B300005F0DCEF05F00950E00F096E0001FC51F3
:100B4000D8A4A5EF05F0A7EF05F0B3EF05F0800EF0
:100B5000FE19D8A4AEEF05F0B0EF05F0B3EF05F045
:100B6000010EA0EC02F00950050D310E056E750E58
:100B7000066EF3500526F450062208500526000E96
:100B8000062205C0F6FF06C0F7FF0800F5CF07F004
:100B9000075082EC01F00001FE2B082A050E081810
:100BA000D8A4D5EF05F0D7EF05F09EEF05F0000EC5
:100BB00082EC01F00001FE2B1200000E32143A6E9E
:100BC000000E33143B6E800E34143C6E7F0E3514D1
:100BD0003D6E3A503B103C103D10D8A4F2EF05F0AA
:100BE000F4EF05F0FCEF05F0000E326E000E336EF0
:100BF000000E346E000E356E000E36143A6E000E86
:100C000037143B6E800E38143C6E7F0E39143D6EE7
:100C10003A503B103C103D10D8A411EF06F013EFF2
:100C200006F01BEF06F0000E366E000E376E000E5B
:100C3000386E000E396E35AE20EF06F022EF06F06A
:100C40002BEF06F0326C331ED8B0332A341ED8B0E6
:100C5000342A800E355639AE30EF06F032EF06F00A
:100C60003BEF06F0366C371ED8B0372A381ED8B0A6
:100C7000382A800E3956000E321A000E331A000E32
:100C8000341A800E351A000E361A000E371A000E6E
:100C9000381A800E391A3650325C37503358385073
:100CA000345839503558D8B058EF06F05AEF06F09E
:100CB0005DEF06F0D8905EEF06F0D88012000001DC
:100CC0008A358B354F6E4F50D8A469EF06F06BEF25
:100CD00006F075EF06F0000E886F000E896F000EAB
:100CE0008A6F000E8B6FE2EF06F088C04AF089C071
:100CF0004BF08AC04CF08BC04DF0200E85EF06F013
:100D0000D8904D324C324B324A32E82E80EF06F00A
:100D10004A504E6E8A8FFF0E8817FF0E8917FF0EFE
:100D20008A17000E8B17960E4F5E4FBE9CEF06F093
:100D30009AEF06F0B2EF06F04F50800A970FD8B046
:100D4000A4EF06F0A6EF06F0A8EF06F06BEF06F0B2
:100D5000D8908B338A33893388334F3EA8EF06F01F
:100D6000CAEF06F01F0E4F64B8EF06F0BAEF06F0B8
:100D7000C2EF06F06BEF06F0D890883789378A37D4
:100D80008B374F064F50D8A4C8EF06F0CAEF06F0D5
:100D9000BCEF06F04E50D8B4D0EF06F0D2EF06F01C
:100DA000DAEF06F08B1F8A1F891F886D000E8923DA
:100DB0008A238B2388C088F089C089F08AC08AF092
:100DC0008BC08BF01200000E166E14BEECEF06F016
:100DD000EAEF06F0F6EF06F0141E131E121E116C59
:100DE000000E122213221422010E166E10BEFDEF09
:100DF00006F0FBEF06F007EF07F0101E0F1E0E1EA9
:100E00000D6C000E0E220F221022010E161A000E7B
:100E1000176E000E186E000E196E000E1A6E11502D
:100E2000121013101410D8B418EF07F01AEF07F0CF
:100E300050EF07F0010E156E24EF07F0D890113631
:100E4000123613361436152A14AE29EF07F02BEF9D
:100E500007F01EEF07F0D8901736183619361A36F5
:100E600011500D5C12500E5813500F58145010585A
:100E7000D8A03DEF07F03FEF07F048EF07F0115023
:100E80000D5E12500E5A13500F5A1450105A1780FC
:100E9000D8901432133212321132152E2BEF07F084
:100EA0001650D8B456EF07F058EF07F060EF07F090
:100EB0001A1E191E181E176C000E182219221A224B
:100EC00017C00DF018C00EF019C00FF01AC010F0C6
:100ED0001200096E0950D8B470EF07F072EF07F0F6
:100EE00094EF07F004BE79EF07F077EF07F094EF87
:100EF00007F001C005F002C006F003C007F004C00F
:100F000008F0051E061E071E081E052A000E0622F2
:100F10000722082205C00BF006C00CF007C00DF038
:100F200008C00EF09CEF07F001C00BF002C00CF0FF
:100F300003C00DF004C00EF00150021003100410A5
:100F4000D8A4A5EF07F0A7EF07F0B1EF07F0000E68
:100F5000016E000E026E000E036E000E046E42EF74
:100F600008F0960E0A6EBBEF07F00A2AD8900E32F0
:100F70000D320C320B32000E0B14056E000E0C14E9
:100F8000066E000E0D14076EFE0E0E14086E055050
:100F9000061007100810D8A4D0EF07F0D2EF07F022
:100FA000B5EF07F0E0EF07F00A2A010E0B26000E5E
:100FB0000C220D220E22D8900E320D320C320B3242
:100FC000000E0B14056E000E0C14066E000E0D14B0
:100FD000076EFF0E0E14086E05500610071008105D
:100FE000D8A4F5EF07F0F7EF07F0D4EF07F0FFEF25
:100FF00007F00A06D8900B360C360D360E360DBEAD
:1010000004EF08F006EF08F00EEF08F0020E0A6099
:101010000CEF08F00EEF08F0F9EF07F00AB013EF4D
:1010200008F015EF08F016EF08F00D9ED8900A3280
:101030000AC005F0066A076A086A05C008F0076A70
:10104000066A056A05500B1206500C1207500D1265
:1010500008500E120950D8B430EF08F032EF08F003
:101060003AEF08F004BE39EF08F037EF08F03AEF36
:1010700008F00E8E0BC001F00CC002F00DC003F0A2
:101080000EC004F012002AC011F02BC012F02CC0C8
:1010900013F02DC014F02AC015F02BC016F02CC090
:1010A00017F02DC018F068EC10F011C042F012C01B
:1010B00043F013C044F014C045F042C011F043C0E7
:1010C00012F044C013F045C014F042C015F043C004
:1010D00016F044C017F045C018F068EC10F011C0CD
:1010E0003EF012C03FF013C040F014C041F0170EA4
:1010F000156E9A0E166ECC0E176E370E186E42C015
:1011000011F043C012F044C013F045C014F068EC75
:1011100010F011C001F012C002F013C003F014C0AF
:1011200004F03F0E056E040E066EB60E076EBA0E84
:10113000086EC3EC14F001C02EF002C02FF003C003
:1011400030F004C031F0000E056E000E066E800E09
:10115000076E3F0E086E000E156E000E166E000E26
:10116000176EBF0E186E42C011F043C012F044C09B
:1011700013F045C014F068EC10F011C001F012C07B
:1011800002F013C003F014C004F0C3EC14F001C06B
:1011900032F002C033F003C034F004C035F042C076
:1011A00015F043C016F044C017F045C018F03EC01B
:1011B00011F03FC012F040C013F041C014F068ECD1
:1011C00010F011C036F012C037F013C038F014C060
:1011D00039F09F0E156EAA0E166E2A0E176E3D0E72
:1011E000186E3EC011F03FC012F040C013F041C075
:1011F00014F068EC10F011C005F012C006F013C036
:1012000007F014C008F032C001F033C002F034C05F
:1012100003F035C004F0C3EC14F001C03AF002C092
:101220003BF003C03CF004C03DF03AC001F03BC0CD
:1012300002F03CC003F03DC004F02EC015F02FC0FA
:1012400016F030C017F031C018F036C011F037C0BA
:1012500012F038C013F039C014F068EC10F011C06F
:1012600005F012C006F013C007F014C008F0C3EC7C
:1012700014F001C02AF002C02BF003C02CF004C00F
:101280002DF012004AC011F04BC012F04CC013F008
:101290004DC014F04AC015F04BC016F04CC017F00A
:1012A0004DC018F068EC10F011C078F012C079F061
:1012B00013C07AF014C07BF078C011F079C012F03E
:1012C0007AC013F07BC014F078C015F079C016F026
:1012D0007AC017F07BC018F068EC10F011C064F011
:1012E00012C065F013C066F014C067F03C0E156EB6
:1012F0006C0E166E360E176E360E186E78C011F024
:1013000079C012F07AC013F07BC014F068EC10F0D2
:1013100011C001F012C002F013C003F014C004F0B9
:10132000CF0E056E070E066E500E076EB90E086ED4
:10133000C3EC14F001C060F002C061F003C062F0C1
:1013400004C063F078C011F079C012F07AC013F0D5
:101350007BC014F04AC015F04BC016F04CC017F01B
:101360004DC018F068EC10F011C074F012C075F0A8
:1013700013C076F014C077F0AB0E056EAA0E066EA1
:101380002A0E076EBE0E086E840E156E880E166E3F
:10139000080E176E3C0E186E78C011F079C012F06E
:1013A0007AC013F07BC014F068EC10F011C001F0AB
:1013B00012C002F013C003F014C004F0C3EC14F028
:1013C00001C068F002C069F003C06AF004C06BF0AD
:1013D00064C015F065C016F066C017F067C018F05D
:1013E00074C011F075C012F076C013F077C014F01D
:1013F00068EC10F011C06CF012C06DF013C06EF00C
:1014000014C06FF04AC005F04BC006F04CC007F0A6
:101410004DC008F074C015F075C016F076C017F016
:1014200077C018F068C011F069C012F06AC013F0FC
:101430006BC014F068EC10F011C001F012C002F0A3
:1014400013C003F014C004F0C3EC14F001C070F03A
:1014500002C071F003C072F004C073F070C001F0FC
:1014600071C002F072C003F073C004F060C015F0E8
:1014700061C016F062C017F063C018F06CC011F0C4
:101480006DC012F06EC013F06FC014F068EC10F075
:1014900011C005F012C006F013C007F014C008F028
:1014A000C3EC14F001C04AF002C04BF003C04CF092
:1014B00004C04DF012002AC038F02BC039F02CC007
:1014C0003AF02DC03BF02FBE6FEF0AF02F5009E12C
:1014D000800E2E5CD8A06FEF0AF071EF0AF0CFEF0C
:1014E0000AF038C011F039C012F03AC013F03BC016
:1014F00014F0000E156E000E166E000E176E7F0EA5
:10150000186E68EC10F011C038F012C039F013C03A
:101510003AF014C03BF0810E2E26FF0E2F222FBE74
:101520009BEF0AF02F5009E1800E2E5CD8A09BEFB4
:101530000AF09DEF0AF039EF0BF038C011F039C016
:1015400012F03AC013F03BC014F0000E156E000EFE
:10155000166E000E176E7F0E186E68EC10F011C03C
:1015600038F012C039F013C03AF014C03BF0810ECD
:101570002E26FF0E2F222FBEC7EF0AF02F5009E1B3
:10158000800E2E5CD8A0C7EF0AF0C9EF0AF039EF41
:101590000BF0000E2F6E7F0E2E6E39EF0BF02FAE7C
:1015A000DBEF0AF0820E2E5CFF0E2F58D8B0DBEF77
:1015B0000AF0DDEF0AF039EF0BF038C011F039C056
:1015C00012F03AC013F03BC014F0000E156E000E7E
:1015D000166E800E176E0C0E186E68EC10F011C0AF
:1015E00038F012C039F013C03AF014C03BF0660E68
:1015F0002E26000E2F222FAE07EF0BF0820E2E5C50
:10160000FF0E2F58D8B007EF0BF009EF0BF039EFB2
:101610000BF038C011F039C012F03AC013F03BC0E3
:1016200014F0000E156E000E166E800E176E0C0E66
:10163000186E68EC10F011C038F012C039F013C009
:101640003AF014C03BF0660E2E26000E2F222FAE6D
:1016500033EF0BF0820E2E5CFF0E2F58D8B033EF15
:101660000BF035EF0BF039EF0BF0FF0E2F6E820E03
:101670002E6E7F0E2E24306E000E2F20316E326AB9
:10168000336A170ED8903036313632363336E82E7C
:1016900042EF0BF030C034F031C035F032C036F0DC
:1016A00033C037F034C011F035C012F036C013F03B
:1016B00037C014F038C015F039C016F03AC017F032
:1016C0003BC018F068EC10F011C02AF012C02BF0EB
:1016D00013C02CF014C02DF02AC02AF02BC02BF020
:1016E0002CC02CF02DC02DF01200286E020E2818F0
:1016F000D8A47DEF0BF07FEF0BF0BEEF0BF0B4EF53
:101700000BF012C013F0FF0E1326010E146E156AB3
:10171000166A176A132A92EF0BF0D8901436153612
:1017200016361736132E8DEF0BF00E501414186E5C
:101730000F501514196E105016141A6E11501714FC
:101740001B6E185019101A101B10D8A4AAEF0BF01A
:10175000ADEF0BF0010EAEEF0BF0000E296E29502D
:10176000300F66EC05F012061250D8A4BAEF0BF059
:10177000BCEF0BF081EF0BF0A5EF0CF00E500F104B
:1017800010101110D8A4C7EF0BF0C9EF0BF0E4EF65
:101790000BF0000E296ED1EF0BF0300E66EC05F069
:1017A000292A1250295CD8B0D8EF0BF0DAEF0BF0F1
:1017B000A5EF0CF0090E2964E0EF0BF0E2EF0BF05F
:1017C000CDEF0BF0A5EF0CF0000E296E41EF0CF001
:1017D0000E500F1010101110D8B4F1EF0BF0F3EF02
:1017E0000BF026EF0CF01C0E2924D96EDA6A000EDD
:1017F000DA220EC001F00FC002F010C003F011C0D9
:1018000004F02850056E066A076A086A5AEC04F06C
:1018100001502802F3500E5CDF6E0EC001F00FC0C5
:1018200002F010C003F011C004F02850056E066AE3
:10183000076A086A5AEC04F001C00EF002C00FF00B
:1018400003C010F004C011F040EF0CF01228D8B41F
:101850002CEF0CF02EEF0CF09DEF0CF00A0E126442
:1018600034EF0CF036EF0CF038EF0CF09DEF0CF08D
:101870001C0E2924D96EDA6A000EDA22000EDF6E01
:10188000292A1250295CD8A048EF0CF04AEF0CF03E
:10189000E8EF0BF09DEF0CF0FF0E136EFF0E146ED1
:1018A0002950156E166A13501526145016221C0E58
:1018B0001524D96E000E1620DA6E0A0EDF6063EF73
:1018C0000CF065EF0CF080EF0CF0FF0E136EFF0EC6
:1018D000146E2950156E166A1350152614501622D0
:1018E0001C0E1524D96E000E1620DA6EDF50176E0E
:1018F000300E1724266E276A000E272299EF0CF06F
:10190000FF0E136EFF0E146E2950156E166A1350DB
:101910001526145016221C0E1524D96E000E162002
:10192000DA6EDF50176E370E1724266E276A000E08
:101930002722265066EC05F029062950D8A4A3EFEB
:101940000CF0A5EF0CF04CEF0CF012000001D5519B
:10195000800BDE6FD551D525E56FD4AFB2EF0CF01B
:10196000B4EF0CF0B5EF0CF0E581E551D8B4BBEF66
:101970000CF0BDEF0CF0D2EF0CF0E529D8A4C3EFCA
:101980000CF0C5EF0CF0CDEF0CF0000ED26F000E96
:10199000D36F000ED46F000ED56FD48F000ED56FAD
:1019A000DAEF0CF0000ED26F000ED36F000ED46F82
:1019B000000ED56FD951800BDE1BD951D925E66FAA
:1019C000D8AFE5EF0CF0E7EF0CF0E8EF0CF0E681B4
:1019D000E651D8B4EEEF0CF0F0EF0CF005EF0DF09F
:1019E000E629D8A4F6EF0CF0F8EF0CF000EF0DF0BC
:1019F000000ED66F000ED76F000ED86F000ED96F95
:101A0000D88F000ED96F0DEF0DF0000ED66F000EBF
:101A1000D76F000ED86F000ED96FD651D711D811DD
:101A2000D911D8A416EF0DF018EF0DF030EF0DF02E
:101A3000000ED26F000ED36F000ED46F000ED56F64
:101A4000800ED4137F0ED513DE51D513D2C0D2F041
:101A5000D3C0D3F0D4C0D4F0D5C0D5F073EF0EF01E
:101A6000E551D8A436EF0DF038EF0DF042EF0DF050
:101A7000000ED26F000ED36F000ED46F000ED56F24
:101A800073EF0EF0E651E5C058F0596A585E000E4B
:101A9000595A7F0E5824DF6F000E5920E06FD2C0D4
:101AA000DAF0D3C0DBF0D4C0DCF0D5C0DDF0000E3E
:101AB000D26F000ED36F000ED46F000ED56F000EE4
:101AC000E16F000EE26F000EE36F000EE46F000E98
:101AD000E66FA3EF0DF0E651D8B471EF0DF073EFA0
:101AE0000DF08AEF0DF0D890DA37DB37DC37DD37D1
:101AF000D890D237D337D437D537E4AF82EF0DF053
:101B000084EF0DF085EF0DF0D281D890E137E23708
:101B1000E337E437D651DA5DD751DB59D851DC5978
:101B2000D951DD59D8A097EF0DF099EF0DF0A2EF44
:101B30000DF0E48DD651DA5FD751DB5BD851DC5B19
:101B4000D951DD5BE62B190EE665A9EF0DF0ABEF81
:101B50000DF06BEF0DF0DA51DB11DC11DD11D8B4B3
:101B6000B4EF0DF0B6EF0DF0CEEF0DF0E181CEEF5A
:101B70000DF0D890D237D337D437D537E4AFC3EF91
:101B80000DF0C5EF0DF0C6EF0DF0D281D890E13722
:101B9000E237E337E437DF07D8A0E007D4AFD3EF6D
:101BA0000DF0D5EF0DF0B9EF0DF0000EE66FE4AFDC
:101BB000DCEF0DF0DEEF0DF002EF0EF0FF0EE115A1
:101BC000586EFF0EE215596EFF0EE3155A6E7F0E2A
:101BD000E4155B6E585059105A105B10D8B4F3EFEF
:101BE0000DF0F5EF0DF0F9EF0DF0010EE66F02EFDD
:101BF0000EF0D2A1FEEF0DF000EF0EF002EF0EF0AE
:101C0000F5EF0DF0E651D8B408EF0EF00AEF0EF044
:101C10002EEF0EF0010ED227000ED323D423D523AE
:101C2000D5A115EF0EF017EF0EF02EEF0EF0D2C08B
:101C300058F0D3C059F0D4C05AF0D5C05BF05B3433
:101C40005B325A325932583258C0D2F059C0D3F0B0
:101C50005AC0D4F05BC0D5F0DF4BE02BE0BF39EFCA
:101C60000EF0E05108E1DF29D8A039EF0EF03BEF8C
:101C70000EF046EF0EF0000EE06FDF69000ED26F3F
:101C8000000ED36F000ED46F000ED56FE0BF53EF80
:101C90000EF0E05106E1DF05D8B051EF0EF053EF42
:101CA0000EF061EF0EF0000EE06F000EDF6F000E21
:101CB000D26F000ED36F000ED46F000ED56F000EE2
:101CC000DE6FDFC0E5F0E5A168EF0EF06AEF0EF021
:101CD0006DEF0EF0D48F6EEF0EF0D49FD890E531FB
:101CE000D56F24EF0DF012002C0E426E000E436EE5
:101CF0002AC03EF02BC03FF059EF10F03EC0F6FF77
:101D00003FC0F7FF0800F5CF40F0250E4018D8A4DB
:101D10008CEF0EF08EEF0EF054EF10F03E4A3F2A9B
:101D20003EC0F6FF3FC0F7FF0800F5CF40F02F0E92
:101D300040649DEF0EF09FEF0EF0CCEF0EF03A0EE8
:101D40004060A5EF0EF0A7EF0EF0CCEF0EF0000E06
:101D5000416EBAEF0EF041500A0DF3504024D00FFF
:101D6000416E3E4A3F2A3EC0F6FF3FC0F7FF0800E3
:101D7000F5CF40F02F0E4064C0EF0EF0C2EF0EF032
:101D8000CFEF0EF0390E4064C8EF0EF0CAEF0EF040
:101D9000ABEF0EF009EF10F0416809EF10F009EF1A
:101DA00010F042C0D9FF43C0DAFFDF50406E020E90
:101DB0004226000E4322405066EC05F057EF10F02B
:101DC00042C0D9FF43C0DAFFDECF34F0DDCF35F0BB
:101DD000020E4226000E432235BEF3EF0EF0F1EF65
:101DE0000EF0FAEF0EF0346C351ED8B0352A2D0EF9
:101DF00066EC05F034C00EF035C00FF0000E0FBEDB
:101E0000FF0E106E116E41C012F00A0E75EC0BF051
:101E100057EF10F042C0D9FF43C0DAFFDECF36F0F3
:101E2000DDCF37F0020E4226000E432237BE1DEFF3
:101E30000FF01BEF0FF024EF0FF0366C371ED8B009
:101E4000372A2D0E66EC05F036C00EF037C00FF0C5
:101E5000000E0FBEFF0E106E116E41C012F00A0E82
:101E600075EC0BF057EF10F042C0D9FF43C0DAFF1A
:101E7000DECF3CF0DDCF3DF0020E4226000E4322C5
:101E80003CC00EF03DC00FF0106A116A41C012F064
:101E90000A0E75EC0BF057EF10F042C0D9FF43C0AB
:101EA000DAFFDECF38F0DECF39F0DECF3AF0DECF2A
:101EB0003BF0040E4226000E432238C00EF039C01B
:101EC0000FF03AC010F03BC011F041C012F00A0E02
:101ED00075EC0BF057EF10F042C0D9FF43C0DAFFAA
:101EE000DECF3CF0DDCF3DF0020E4226000E432255
:101EF0003CC00EF03DC00FF0106A116A41C012F0F4
:101F0000100E75EC0BF057EF10F042C0D9FF43C034
:101F1000DAFFDECF38F0DECF39F0DECF3AF0DECFB9
:101F20003BF0040E4226000E432238C00EF039C0AA
:101F30000FF03AC010F03BC011F041C012F0100E8B
:101F400075EC0BF057EF10F042C0D9FF43C0DAFF39
:101F5000DECF3CF0DDCF3DF0020E4226000E4322E4
:101F60004128D8A4B6EF0FF0B8EF0FF0BAEF0FF09A
:101F7000100E416E3CC00EF03DC00FF0106A116AA9
:101F800041C012F0020E75EC0BF057EF10F042C09A
:101F9000D9FF43C0DAFFDECF38F0DECF39F0DECF35
:101FA0003AF0DECF3BF0040E4226000E43224128D9
:101FB000D8A4DDEF0FF0DFEF0FF0E1EF0FF0100E20
:101FC000416E38C00EF039C00FF03AC010F03BC07F
:101FD00011F041C012F0020E75EC0BF057EF10F04B
:101FE00042C0D9FF43C0DAFFDECF32F0DDCF33F09D
:101FF000020E4226000E432232C00AF033C00BF01C
:1020000009EC02F057EF10F0250E66EC05F057EFE3
:1020100010F04050306E316A3150000AD8B413EFDE
:1020200010F057EF10F03050250AD8B404EF10F03C
:10203000670AD8B4C7EF0FF0010AD8B4D1EF0EF099
:10204000070AD8B40AEF0FF0020AD8B452EF10F022
:10205000150AD8B4F0EF0FF0060AD8B44DEF0FF020
:102060000D0AD8B485EF0FF03A0AD8B4A4EF0FF0F8
:10207000010AD8B4D1EF0EF0070AD8B4E0EF0EF0A1
:10208000020AD8B457EF10F0150AD8B4F0EF0FF0E9
:10209000060AD8B434EF0FF00D0AD8B46CEF0FF085
:1020A00057EF10F057EF10F0405066EC05F03E4A45
:1020B0003F2A3EC0F6FF3FC0F7FF0800F550000979
:1020C000D8A465EF10F067EF10F07EEF0EF012006D
:1020D0001450800B1D6E14501424236E13AE73EF36
:1020E00010F075EF10F076EF10F023802350D8B485
:1020F0007CEF10F07EEF10F091EF10F02328D8A4C1
:1021000084EF10F086EF10F08EEF10F0000E116EDD
:10211000000E126E000E136E000E146E138E99EFE9
:1021200010F0000E116E000E126E000E136E000EF7
:10213000146E1850800B1D1A18501824226E17AEFA
:10214000A4EF10F0A6EF10F0A7EF10F022802250BD
:10215000D8B4ADEF10F0AFEF10F0C2EF10F02228BE
:10216000D8A4B5EF10F0B7EF10F0BFEF10F0000EED
:10217000156E000E166E000E176E000E186E178E7E
:10218000CAEF10F0000E156E000E166E000E176EE0
:10219000000E186E2250D8B4D0EF10F0D2EF10F02D
:1021A000DAEF10F02350D8A4D8EF10F0DAEF10F0E7
:1021B000E4EF10F0000E116E000E126E000E136EA2
:1021C000000E146E7CEF12F017501102F3CF28F0BE
:1021D000F4CF29F028501E6E1F6A206A216A295008
:1021E000246E256A266A276A16501202F3CF28F059
:1021F000F4CF29F028501E26000E1F222022212273
:1022000029502426000E25222622272215501302AB
:10221000F3CF28F0F4CF29F028501E26000E1F22FD
:102220002022212229502426000E25222622272280
:1022300020C021F01FC020F01EC01FF01E6A1550E4
:102240001202F3CF28F0F4CF29F028501E2629508F
:102250001F22000E2022000E212216501102F3CF61
:1022600028F0F4CF29F028501E2629501F22000EF6
:102270002022000E212220C021F01FC020F01EC00D
:102280001FF01E6A15501102F3CF28F0F4CF29F089
:1022900028501E2629501F22000E2022000E212227
:1022A00017501202F3CF28F0F4CF29F0285024263B
:1022B00029502522000E2622000E27221650130236
:1022C000F3CF28F0F4CF29F02850242629502522D6
:1022D000000E2622000E272217501302F3CF28F0FB
:1022E000F4CF29F02850196E29501A6E1B6A1C6A07
:1022F0001BC01CF01AC01BF019C01AF0196A195043
:1023000024261A5025221B5026221C5027221EC08C
:1023100019F01FC01AF020C01BF021C01CF0190ECC
:1023200097EF11F0D8901C321B321A321932E82E76
:1023300092EF11F0195024261A5025221B50262204
:102340001C50272220C021F01FC020F01EC01FF00B
:102350001E6A225023C019F01A6A1926000E1A228A
:10236000820E1924286EFF0E1A20296ECDEF11F06F
:10237000D890243625362636273621AEC2EF11F006
:10238000C4EF11F0C5EF11F02480D8901E361F362F
:10239000203621362806D8A0290626AED2EF11F025
:1023A000D4EF11F0B8EF11F0000E226E21AEDBEF8A
:1023B00011F0DDEF11F001EF12F0FF0E1E14196E97
:1023C000FF0E1F141A6EFF0E20141B6E7F0E2114B9
:1023D0001C6E19501A101B101C10D8B4F2EF11F01B
:1023E000F4EF11F0F8EF11F0010E226E01EF12F090
:1023F00024A0FDEF11F0FFEF11F001EF12F0F4EF68
:1024000011F02250D8B407EF12F009EF12F02DEFBF
:1024100012F0010E2426000E25222622272227A0B4
:1024200014EF12F016EF12F02DEF12F024C019F095
:1024300025C01AF026C01BF027C01CF01C341C322B
:102440001B321A32193219C024F01AC025F01BC0F1
:1024500026F01CC027F0284A292A29BE38EF12F09E
:10246000295008E12828D8A038EF12F03AEF12F0EE
:1024700044EF12F0000E246E000E256E800E266EC4
:102480007F0E276E72EF12F029BE51EF12F0295025
:1024900006E12804D8B04FEF12F051EF12F05DEFD3
:1024A00012F0000E246E000E256E000E266E000E39
:1024B000276E000E1D6E72EF12F028C023F0FF0E83
:1024C0002416FF0E25167F0E2616000E271623A0B3
:1024D0006CEF12F06EEF12F06FEF12F0268ED890C4
:1024E0002330276E1D50271224C011F025C012F092
:1024F00026C013F027C014F0120004C29CF005C2DD
:102500009DF006C29EF007C29FF08CC09CF08DC06B
:102510009DF08EC09EF08FC09FF09CC050F09DC07B
:1025200051F09EC052F09FC053F0200E9DEF12F06C
:10253000D8905332523251325032E82E98EF12F086
:1025400050C09AF051C09BF0FF0E00019C15966F91
:10255000FF0E9D15976FFF0E9E15986F7F0E9F15AE
:10256000996F800E985D7F0E9959D8A0BAEF12F03E
:10257000BCEF12F0E1EF12F08CC02AF08DC02BF00E
:102580008EC02CF08FC02DF08CC02EF08DC02FF09F
:102590008EC030F08FC031F057EC02F090C0D9FF00
:1025A00091C0DAFF2AC0DEFF2BC0DEFF2CC0DEFFA9
:1025B0002DC0DEFF000E00018D6F000E8C6FC2EF8C
:1025C00014F0DB0E965D0F0E9759C90E98594D0EFB
:1025D0009959D8B0EEEF12F0F0EF12F0DFEF13F0F0
:1025E0008CC001F08DC002F08EC003F08FC004F0EB
:1025F00021EC02F001C0A8F002C0A9F003C0AAF0CB
:1026000004C0ABF0000E056E000E066E000E076EE5
:102610003F0E086E830E156EF90E166E220E176EA3
:102620003F0E186EA8C011F0A9C012F0AAC013F096
:10263000ABC014F068EC10F011C001F012C002F051
:1026400013C003F014C004F0C3EC14F001C088F010
:1026500002C089F003C08AF004C08BF05FEC06F082
:1026600088C0ACF089C0ADF08AC0AEF08BC0AFF0CE
:10267000ACC001F0ADC002F0AEC003F0AFC004F0DA
:10268000010E69EC07F001C0A4F002C0A5F003C080
:10269000A6F004C0A7F0DA0E156E0F0E166EC90E66
:1026A000176E3F0E186EA4C011F0A5C012F0A6C0A0
:1026B00013F0A7C014F068EC10F011C02EF012C097
:1026C0002FF013C030F014C031F0A8C02AF0A9C018
:1026D0002BF0AAC02CF0ABC02DF057EC02F02AC0B2
:1026E000A0F02BC0A1F02CC0A2F02DC0A3F0A0C080
:1026F0002AF0A1C02BF0A2C02CF0A3C02DF0A30E95
:10270000156E850E166E880E176E320E186EA4C0EA
:1027100011F0A5C012F0A6C013F0A7C014F068EC29
:1027200010F011C02EF012C02FF013C030F014C002
:1027300031F057EC02F090C0D9FF91C0DAFF2AC007
:10274000DEFF2BC0DEFF2CC0DEFF2DC0DEFF000150
:102750009A519B11D8B4AFEF13F0B1EF13F0D9EF4A
:1027600013F090C0D9FF91C0DAFFDECF46F0DECF84
:1027700047F0DECF48F0DECF49F03BEC02F090C0EE
:10278000D9FF91C0DAFF46C0DEFF47C0DEFF48C078
:10279000DEFF49C0DEFFACC050F0ADC051F0501EAE
:1027A000511E504A512A50C08CF051C08DF0C2EFDA
:1027B00014F0ACC08CF0ADC08DF0C2EF14F08CC042
:1027C00001F08DC002F08EC003F08FC004F021EC48
:1027D00002F001C0A8F002C0A9F003C0AAF004C032
:1027E000ABF0000E056E000E066E000E076E3F0E7B
:1027F000086E830E156EF90E166E220E176E3F0EC2
:10280000186EA8C011F0A9C012F0AAC013F0ABC096
:1028100014F068EC10F011C001F012C002F013C007
:1028200003F014C004F0C3EC14F001C088F002C03F
:1028300089F003C08AF004C08BF05FEC06F088C01A
:10284000ACF089C0ADF08AC0AEF08BC0AFF0ACC0C8
:1028500001F0ADC002F0AEC003F0AFC004F0010E55
:1028600069EC07F001C0A4F002C0A5F003C0A6F017
:1028700004C0A7F0DA0E156E0F0E166EC90E176E95
:102880003F0E186EA4C011F0A5C012F0A6C013F040
:10289000A7C014F068EC10F011C02EF012C02FF099
:1028A00013C030F014C031F0A8C02AF0A9C02BF03A
:1028B000AAC02CF0ABC02DF057EC02F02AC0A0F05B
:1028C0002BC0A1F02CC0A2F02DC0A3F0A0C02AF014
:1028D000A1C02BF0A2C02CF0A3C02DF0A30E156E4A
:1028E000850E166E880E176E320E186EA4C011F08B
:1028F000A5C012F0A6C013F0A7C014F068EC10F049
:1029000011C02EF012C02FF013C030F014C031F0FF
:1029100057EC02F02AC092F02BC093F02CC094F038
:102920002DC095F000019A519B11D8B49AEF14F084
:102930009CEF14F0B4EF14F092C046F093C047F04F
:1029400094C048F095C049F03BEC02F090C0D9FF2C
:1029500091C0DAFF46C0DEFF47C0DEFF48C0DEFFA1
:1029600049C0DEFFCBEF13F090C0D9FF91C0DAFF72
:1029700092C0DEFF93C0DEFF94C0DEFF95C0DEFF95
:10298000D9EF13F012000450800B0D6E0450042494
:102990000F6E03AECEEF14F0D0EF14F0D1EF14F0C1
:1029A0000F800F50D8B4D7EF14F0D9EF14F0EEEF3A
:1029B00014F00F28D8A4DFEF14F0E1EF14F0E9EFE2
:1029C00014F0000E016E000E026E000E036E000E7B
:1029D000046E038E000E046EF6EF14F0000E016E0E
:1029E000000E026E000E036E000E046E0850800B87
:1029F0000E6E0D500E18D8B400EF15F002EF15F062
:102A000003EF15F00D8C085008240E6E07AE0BEF87
:102A100015F00DEF15F00EEF15F00E800E50D8B436
:102A200014EF15F016EF15F02BEF15F00E28D8A4C3
:102A30001CEF15F01EEF15F026EF15F0000E056ED9
:102A4000000E066E000E076E000E086E078E000E5A
:102A5000086E33EF15F0000E056E000E066E000EC8
:102A6000076E000E086E0F500E5CD8B03AEF15F0EE
:102A70003CEF15F063EF15F00DAC41EF15F043EFAF
:102A800015F045EF15F0800E0D1A0FC010F00EC0B6
:102A90000FF010C00EF001C010F005C001F010C022
:102AA00005F002C010F006C002F010C006F003C02E
:102AB00010F007C003F010C007F004C010F008C009
:102AC00004F010C008F0000E106E0F500EC009F098
:102AD0000A6A095E000E0A5A0ABE78EF15F00A501B
:102AE00009E11A0E095CD8A078EF15F07AEF15F01D
:102AF000B1EF15F00150021003100410D8A483EFB9
:102B000015F086EF15F0010E87EF15F0000E106E30
:102B1000000E016E000E026E000E036E000E046EBB
:102B20000EC00FF0BAEF15F010A099EF15F09BEF63
:102B300015F0A1EF15F0D89010300109106EA3EF39
:102B400015F0D890103201A0A8EF15F0AAEF15F0FB
:102B5000ABEF15F0108E043404320332023201322E
:102B60000F2A0E500F5CD8A0B8EF15F0BAEF15F091
:102B700094EF15F00DBCBFEF15F0C1EF15F001EFAC
:102B800016F00F50D8A4C7EF15F0C9EF15F0D3EF2A
:102B900015F0000E016E000E026E000E036E000EA8
:102BA000046E22EF17F0055001260650022207504E
:102BB00003220850042204A0E0EF15F0E2EF15F024
:102BC0008EEF16F010A0E7EF15F0E9EF15F0EFEF3C
:102BD00015F0D89010300109106EF1EF15F0D89073
:102BE000103201A0F6EF15F0F8EF15F0F9EF15F03F
:102BF000108E043404320332023201320F2A8EEF77
:102C000016F00550015C0650025807500358045056
:102C1000800A096E0850800A0958D8B012EF16F0E1
:102C200014EF16F03FEF16F00150055C096E0250EC
:102C300006580A6E035007580B6E045008580C6E65
:102C4000FF0E0924016EFF0E0A20026EFF0E0B20FC
:102C5000036EFF0E0C20046E800E0D1A106C1050C7
:102C6000D8A435EF16F037EF16F047EF16F0010E47
:102C70000126000E02220322042247EF16F005501F
:102C8000015E0650025A0750035A0850045A015078
:102C9000021003100410D8A450EF16F052EF16F0F3
:102CA00087EF16F01050D8A458EF16F05AEF16F030
:102CB00087EF16F0000E016E000E026E000E036E1E
:102CC000000E046E22EF17F0D8900136023603365C
:102CD000043610AE6EEF16F070EF16F071EF16F0CE
:102CE000018010A076EF16F078EF16F07CEF16F06A
:102CF000D88010367EEF16F0D89010360F50D8B42A
:102D000084EF16F086EF16F087EF16F00F0603AE8D
:102D10008CEF16F08EEF16F064EF16F0000E0E6ECC
:102D200010AE95EF16F097EF16F0AFEF16F010C05B
:102D300009F07F0E0916D8B4A0EF16F0A2EF16F036
:102D4000A6EF16F0010E0E6EAFEF16F001A0ABEF7E
:102D500016F0ADEF16F0AFEF16F0A2EF16F00E5032
:102D6000D8B4B5EF16F0B7EF16F0E2EF16F0010E9B
:102D70000126000E02220322042204A0C2EF16F054
:102D8000C4EF16F0E2EF16F001C009F002C00AF03D
:102D900003C00BF004C00CF00C340C320B320A32BE
:102DA000093209C001F00AC002F00BC003F00CC0E8
:102DB00004F00F28D8B4DFEF16F0E1EF16F0E2EFE1
:102DC00016F00F2A0F28D8B4E8EF16F0EAEF16F045
:102DD000F2EF16F00F50D8A4F0EF16F0F2EF16F065
:102DE00004EF17F0000E016E000E026E000E036E6F
:102DF000000E046E0F50D8A400EF17F002EF17F08A
:102E000004EF17F0000E0D6E0FA009EF17F00BEF97
:102E100017F00EEF17F0038E0FEF17F0039ED89008
:102E20000F30046E0DAE17EF17F019EF17F01AEF11
:102E300017F0048E01C001F002C002F003C003F0DD
:102E400004C004F012003EC06CF03FC06DF040C002
:102E50006EF041C06FF06CC084F06DC085F06EC044
:102E600086F06FC087F0000E00018415426E000EE0
:102E70008515436E800E8615446E7F0E8715456E50
:102E8000800E441809E17F0E451842104310D8A463
:102E90004CEF17F04EEF17F07CEF17F03EC015F037
:102EA0003FC016F040C017F041C018F03EC011F00E
:102EB0003FC012F040C013F041C014F068EC10F0B5
:102EC00011C001F012C002F013C003F014C004F0EE
:102ED0003EC005F03FC006F040C007F041C008F01A
:102EE000C3EC14F001C03EF002C03FF003C040F05C
:102EF00004C041F083EF19F087BF8BEF17F08751C3
:102F00008611851106E18405D8B089EF17F08BEFA3
:102F100017F0C8EF17F0FF0E8415426EFF0E8515EF
:102F2000436EFF0E8615446E7F0E8715456E425028
:102F3000431044104510D8A4A0EF17F0A2EF17F0EB
:102F4000ACEF17F03EC03EF03FC03FF040C040F055
:102F500041C041F083EF19F087BFB3EF17F0B1EF35
:102F600017F0C8EF17F0000E0201256F210E246F35
:102F7000EE0E016E7F0E026ECEEC01F001C03EF04F
:102F800002C03FF003C040F004C041F083EF19F0ED
:102F9000170E426E84C043F085C044F086C045F0F1
:102FA00087C046F04266D7EF17F0DFEF17F04634E0
:102FB0004632453244324332422ED2EF17F043C0FC
:102FC0007CF044C07DF045C07EF046C07FF000013B
:102FD0007C517D117E117F11D8A4F1EF17F0F3EF32
:102FE00017F023EF18F0000E686F000E696F000EE7
:102FF0006A6F000E6B6F08EF18F0D8908437853732
:1030000086378737010E6827000E69236A236B23F2
:1030100086AF0DEF18F00FEF18F0FDEF17F0FF0E71
:103020006825426EFF0E6921436EFF0E6A21446ED1
:10303000FF0E6B21456E42507C5F43507D5B4450D8
:103040007E5B45507F5B810E7C27FF0E7D23FF0E4C
:103050007E23FF0E7F23FF0E8415426EFF0E851523
:10306000436E7F0E8615446E000E8715456E000E6A
:103070004210846F000E4310856F800E4410866FDF
:10308000000E4510876F7CA148EF18F04AEF18F04A
:1030900052EF18F084518427855185238651862369
:1030A000875187237F357F337E337D337C33845153
:1030B0008427855185238651862387518723000ED7
:1030C000646F000E656F000E666F000E676F64C060
:1030D00070F065C071F066C072F067C073F0000EEA
:1030E000806F000E816F000E826F010E836FC1EF43
:1030F00018F064518025746F65518121756F665198
:103100008221766F67518321776F7451845D755189
:103110008559765186598751800A426E7751800AC7
:103120004258D8A096EF18F098EF18F0B4EF18F0C6
:1031300074518025646F75518121656F76518221AC
:10314000666F77518321676F7451845F7551855B1A
:103150007651865B7751875B80517027815171234F
:10316000825172238351732384518427855185238F
:103170008651862387518723D890833382338133C6
:1031800080338051811182118311D8A4CAEF18F0C5
:10319000CCEF18F079EF18F0845185118611871162
:1031A000D8B4D5EF18F0D7EF18F038EF19F0000EBB
:1031B000786F000E796F800E7A6F3F0E7B6F78C04C
:1031C00032F079C033F07AC034F07BC035F0000EB5
:1031D000366E000E376E800E386E3F0E396EDDECA7
:1031E00005F0D8A0F6EF18F0F8EF18F038EF19F066
:1031F000000E0001786F000E796F800E7A6F3F0E1F
:103200007B6F000E326E000E336E800E346E3F0EFA
:10321000356E78C036F079C037F07AC038F07BC0B0
:1032200039F0DDEC05F0D8B018EF19F01AEF19F00D
:1032300023EF19F0020E00017027000E7123722394
:10324000732338EF19F0010E00017015426E000E65
:103250007115436E000E7215446E000E7315456EA7
:1032600042507027435071234450722345507323BA
:1032700070C042F071C043F072C044F073C045F0BA
:1032800045344532443243324232000E422400017A
:10329000846F000E4320856F000E4420866F3F0E22
:1032A0004520876F7CC042F07DC043F07EC044F073
:1032B0007FC045F0170ED890423643364436453627
:1032C000E82E5BEF19F04250842743508523445089
:1032D00086234550872384C06CF085C06DF086C07E
:1032E0006EF087C06FF06CC078F06DC079F06EC082
:1032F0007AF06FC07BF078C03EF079C03FF07AC0C2
:1033000040F07BC041F01200B0C0B8F0B1C0B9F0DD
:10331000B2C0BAF0B3C0BBF0B8C0CEF0B9C0CFF005
:10332000BAC0D0F0BBC0D1F0CEC054F0CFC055F081
:10333000D0C056F0D1C057F0200EA4EF19F0D890AD
:103340005732563255325432E82E9FEF19F054C09E
:10335000C8F055C0C9F00001D19FDB0ECE5D0F0E45
:10336000CF59490ED0593F0ED159D8B0BAEF19F004
:10337000BCEF19F0E5EF19F0800ED05D390ED15990
:10338000D8B0C5EF19F0C7EF19F0D1EF19F0000E62
:10339000B06F000EB16F800EB26F3F0EB36F4EEF85
:1033A0001CF0B0C02AF0B1C02BF0B2C02CF0B3C0FA
:1033B0002DF043EC08F02AC0B0F02BC0B1F02CC0C7
:1033C000B2F02DC0B3F04EEF1CF0D20ECE5D530E16
:1033D000CF597B0ED059400ED159D8B0F2EF19F029
:1033E000F4EF19F0BDEF1AF0E40ECE5DCB0ECF591D
:1033F000160ED059400ED159D8A001EF1AF003EFA4
:103400001AF060EF1AF0C851C911D8A40AEF1AF0E7
:103410000CEF1AF028EF1AF0B0C001F0B1C002F0C2
:10342000B2C003F0B3C004F0DB0E056E0F0E066EE3
:10343000490E076EC00E086EC3EC14F001C0BCF05C
:1034400002C0BDF003C0BEF004C0BFF042EF1AF0EE
:10345000B0C001F0B1C002F0B2C003F0B3C004F0DC
:10346000DB0E056E0F0E066E490E076E400E086EDF
:10347000C3EC14F001C0BCF002C0BDF003C0BEF04C
:1034800004C0BFF0BCC02AF0BDC02BF0BEC02CF001
:10349000BFC02DF043EC08F02AC046F02BC047F027
:1034A0002CC048F02DC049F03BEC02F046C0B0F013
:1034B00047C0B1F048C0B2F049C0B3F04EEF1CF0C5
:1034C000C851C911D8B467EF1AF069EF1AF097EF35
:1034D0001AF0B0C001F0B1C002F0B2C003F0B3C046
:1034E00004F0DB0E056E0F0E066EC90E076E3F0E62
:1034F000086EC3EC14F001C0C4F002C0C5F003C0F4
:10350000C6F004C0C7F0C4C04AF0C5C04BF0C6C086
:103510004CF0C7C04DF042EC09F04AC0B0F04BC0CF
:10352000B1F04CC0B2F04DC0B3F04EEF1CF0DB0E6A
:103530002A6E0F0E2B6EC90E2C6E3F0E2D6EB0C074
:103540002EF0B1C02FF0B2C030F0B3C031F057EC64
:1035500002F02AC04AF02BC04BF02CC04CF02DC01A
:103560004DF042EC09F04AC0B0F04BC0B1F04CC095
:10357000B2F04DC0B3F04EEF1CF0D60ECE5D310E62
:10358000CF59E20ED059400ED159D8B0CAEF1AF037
:10359000CCEF1AF079EF1BF0E00ECE5DED0ECF59B7
:1035A000AF0ED059400ED159D8A0D9EF1AF0DBEFA9
:1035B0001AF02EEF1BF0C851C911D8A4E2EF1AF08F
:1035C000E4EF1AF000EF1BF0B0C001F0B1C002F060
:1035D000B2C003F0B3C004F0DB0E056E0F0E066E32
:1035E000C90E076EC00E086EC3EC14F001C0C0F027
:1035F00002C0C1F003C0C2F004C0C3F01AEF1BF058
:10360000B0C001F0B1C002F0B2C003F0B3C004F02A
:10361000DB0E056E0F0E066EC90E076E400E086EAD
:10362000C3EC14F001C0C0F002C0C1F003C0C2F08E
:1036300004C0C3F0C0C02AF0C1C02BF0C2C02CF03F
:10364000C3C02DF043EC08F02AC0B0F02BC0B1F09D
:103650002CC0B2F02DC0B3F04EEF1CF0C851C91110
:10366000D8B435EF1BF037EF1BF05DEF1BF0E40E25
:103670002A6ECB0E2B6E960E2C6EC00E2D6EB0C029
:103680002EF0B1C02FF0B2C030F0B3C031F057EC23
:1036900002F02AC04AF02BC04BF02CC04CF02DC0D9
:1036A0004DF042EC09F04AC0B0F04BC0B1F04CC054
:1036B000B2F04DC0B3F04EEF1CF0B0C001F0B1C09D
:1036C00002F0B2C003F0B3C004F0E40E056ECB0EFE
:1036D000066E960E076EC00E086EC3EC14F001C0A5
:1036E000C4F002C0C5F003C0C6F004C0C7F083EF49
:1036F0001AF0800ED05D7F0ED159D8A082EF1BF05A
:1037000084EF1BF0A0EF1BF0B0C02AF0B1C02BF08B
:10371000B2C02CF0B3C02DF0B0C02EF0B1C02FF06D
:10372000B2C030F0B3C031F057EC02F02AC0B0F0B4
:103730002BC0B1F02CC0B2F02DC0B3F04EEF1CF096
:10374000B0C08CF0B1C08DF0B2C08EF0B3C08FF0BD
:10375000CA0E906F000E916F7DEC12F000018CC0CC
:10376000B4F08DC0B5F0000EB5BFFF0EB66FB76FE9
:103770001EEF1CF0CAC02AF0CBC02BF0CCC02CF03E
:10378000CDC02DF043EC08F02AC0B0F02BC0B1F052
:103790002CC0B2F02DC0B3F04EEF1CF0CAC046F002
:1037A000CBC047F0CCC048F0CDC049F03BEC02F0B4
:1037B00046C04AF047C04BF048C04CF049C04DF0FD
:1037C00042EC09F04AC0B0F04BC0B1F04CC0B2F0CE
:1037D0004DC0B3F04EEF1CF0CAC02AF0CBC02BF0A6
:1037E000CCC02CF0CDC02DF043EC08F02AC046F040
:1037F0002BC047F02CC048F02DC049F03BEC02F044
:1038000046C0B0F047C0B1F048C0B2F049C0B3F014
:103810004EEF1CF0CAC04AF0CBC04BF0CCC04CF00D
:10382000CDC04DF042EC09F04AC0B0F04BC0B1F051
:103830004CC0B2F04DC0B3F04EEF1CF0030EB41507
:10384000546E000EB515556E000EB615566E000E70
:10385000B715576E5750000AD8B447EF1CF00AEF5F
:103860001CF05550000AD8B438EF1CF00AEF1CF0D9
:103870005450000AD8B4BAEF1BF0010AD8B4CEEF06
:103880001BF0030AD8B4ECEF1BF00AEF1CF0565003
:10389000000AD8B431EF1CF00AEF1CF01200B0C0DF
:1038A000B8F0B1C0B9F0B2C0BAF0B3C0BBF0B8C0A4
:1038B000CEF0B9C0CFF0BAC0D0F0BBC0D1F0CEC00E
:1038C00054F0CFC055F0D0C056F0D1C057F0200E04
:1038D0006FEF1CF0D8905732563255325432E82EE2
:1038E0006AEF1CF054C0C4F055C0C5F00001D19F70
:1038F000DB0ECE5D0F0ECF59490ED0593F0ED15978
:10390000D8B085EF1CF087EF1CF0B0EF1CF0800EF4
:10391000D05D390ED159D8B090EF1CF092EF1CF069
:103920009CEF1CF0B0C0B0F0B1C0B1F0B2C0B2F0CA
:10393000B3C0B3F02BEF1FF0B0C04AF0B1C04BF0F2
:10394000B2C04CF0B3C04DF042EC09F04AC0B0F048
:103950004BC0B1F04CC0B2F04DC0B3F02BEF1FF034
:10396000D20ECE5D530ECF597B0ED059400ED15999
:10397000D8B0BDEF1CF0BFEF1CF0A4EF1DF0E40EBB
:10398000CE5DCB0ECF59160ED059400ED159D8B0BE
:10399000CCEF1CF0CEEF1CF03DEF1DF0C451C51173
:1039A000D8B4D5EF1CF0D7EF1CF00FEF1DF0DB0EF5
:1039B000056E0F0E066EC90E076E3F0E086EB0C084
:1039C00001F0B1C002F0B2C003F0B3C004F0C3EC28
:1039D00014F001C0C6F002C0C7F003C0C8F004C0B4
:1039E000C9F0C6C02AF0C7C02BF0C8C02CF0C9C0AF
:1039F0002DF043EC08F02AC046F02BC047F02CC055
:103A000048F02DC049F03BEC02F046C0B0F047C092
:103A1000B1F048C0B2F049C0B3F02BEF1FF0B0C016
:103A200001F0B1C002F0B2C003F0B3C004F0DB0E8D
:103A3000056E0F0E066EC90E076EBF0E086EC3EC44
:103A400014F001C0C6F002C0C7F003C0C8F004C043
:103A5000C9F0C6C02AF0C7C02BF0C8C02CF0C9C03E
:103A60002DF043EC08F02AC0B0F02BC0B1F02CC010
:103A7000B2F02DC0B3F02BEF1FF0C451C511D8A484
:103A800044EF1DF046EF1DF06CEF1DF0DB0E056EF0
:103A90000F0E066E490E076EC00E086EB0C001F024
:103AA000B1C002F0B2C003F0B3C004F0C3EC14F034
:103AB00001C046F002C047F003C048F004C049F01E
:103AC0003BEC02F046C0BCF047C0BDF048C0BEF0C1
:103AD00049C0BFF090EF1DF0DB0E056E0F0E066EB5
:103AE000490E076E400E086EB0C001F0B1C002F082
:103AF000B2C003F0B3C004F0C3EC14F001C046F050
:103B000002C047F003C048F004C049F03BEC02F0AB
:103B100046C0BCF047C0BDF048C0BEF049C0BFF0D1
:103B2000BCC04AF0BDC04BF0BEC04CF0BFC04DF0B1
:103B300042EC09F04AC0B0F04BC0B1F04CC0B2F05A
:103B40004DC0B3F02BEF1FF0D60ECE5D310ECF5926
:103B5000E20ED059400ED159D8B0B1EF1DF0B3EFFD
:103B60001DF056EF1EF0E00ECE5DED0ECF59AF0EFC
:103B7000D059400ED159D8B0C0EF1DF0C2EF1DF0A2
:103B800003EF1EF0C451C511D8B4C9EF1DF0CBEF3F
:103B90001DF0E7EF1DF0B0C001F0B1C002F0B2C0FF
:103BA00003F0B3C004F0E40E056ECB0E066E960E65
:103BB000076E400E086EC3EC14F001C0C6F002C0E0
:103BC000C7F003C0C8F004C0C9F029EF1DF0E40E2F
:103BD000056ECB0E066E960E076EC00E086EB0C058
:103BE00001F0B1C002F0B2C003F0B3C004F0C3EC06
:103BF00014F001C0C6F002C0C7F003C0C8F004C092
:103C0000C9F0F1EF1CF0C451C511D8A40AEF1EF0A1
:103C10000CEF1EF028EF1EF0B0C001F0B1C002F0B2
:103C2000B2C003F0B3C004F0DB0E056E0F0E066EDB
:103C3000C90E076EC00E086EC3EC14F001C0C0F0D0
:103C400002C0C1F003C0C2F004C0C3F042EF1EF0D6
:103C5000B0C001F0B1C002F0B2C003F0B3C004F0D4
:103C6000DB0E056E0F0E066EC90E076E400E086E57
:103C7000C3EC14F001C0C0F002C0C1F003C0C2F038
:103C800004C0C3F0C0C04AF0C1C04BF0C2C04CF089
:103C9000C3C04DF042EC09F04AC0B0F04BC0B1F0E7
:103CA0004CC0B2F04DC0B3F02BEF1FF0800ED05DD2
:103CB0007F0ED159D8A05FEF1EF061EF1EF07DEFAF
:103CC0001EF0B0C02AF0B1C02BF0B2C02CF0B3C0CF
:103CD0002DF0B0C02EF0B1C02FF0B2C030F0B3C0A4
:103CE00031F057EC02F02AC0B0F02BC0B1F02CC07C
:103CF000B2F02DC0B3F02BEF1FF0B0C08CF0B1C00C
:103D00008DF0B2C08EF0B3C08FF0CA0E906F000E6F
:103D1000916F7DEC12F000018CC0B4F08DC0B5F055
:103D2000000EB5BFFF0EB66FB76FFBEF1EF0CAC037
:103D30004AF0CBC04BF0CCC04CF0CDC04DF042ECC3
:103D400009F04AC0B0F04BC0B1F04CC0B2F04DC069
:103D5000B3F02BEF1FF0CAC02AF0CBC02BF0CCC0C1
:103D60002CF0CDC02DF043EC08F02AC0B0F02BC0F1
:103D7000B1F02CC0B2F02DC0B3F02BEF1FF0CAC0D1
:103D800046F0CBC047F0CCC048F0CDC049F03BEC8A
:103D900002F046C04AF047C04BF048C04CF049C062
:103DA0004DF042EC09F04AC0B0F04BC0B1F04CC04D
:103DB000B2F04DC0B3F02BEF1FF0CAC02AF0CBC059
:103DC0002BF0CCC02CF0CDC02DF043EC08F02AC075
:103DD00046F02BC047F02CC048F02DC049F03BEC1A
:103DE00002F046C0B0F047C0B1F048C0B2F049C0E0
:103DF000B3F02BEF1FF0030EB415546E000EB51583
:103E0000556E000EB615566E000EB715576E57500C
:103E1000000AD8B424EF1FF0DDEF1EF05550000A61
:103E2000D8B415EF1FF0DDEF1EF05450000AD8B4DF
:103E300097EF1EF0010AD8B4ABEF1EF0030AD8B416
:103E4000BFEF1EF0DDEF1EF05650000AD8B40EEFA3
:103E50001FF0DDEF1EF01200CCEC02F0C150F00BB1
:103E60000D09C16ECF0EC116C30EC216C292C2900A
:103E7000C050C70B1009C06EC050F80B0509C06ECA
:103E8000C08E9468C30EC216C280C282C2B24BEF0B
:103E90001FF04DEF1FF046EF1FF0C290C450FF0D12
:103EA000F3CF5CF0F4CF5DF0C3505C26000E5D22D2
:103EB0005CC0FCF15DC0FDF10101000EFDBFFF0E15
:103EC000FE6FFF6FFCC11BF0FDC11CF0FEC11DF0B9
:103ED000FFC11EF0000E1F6E000E206E000E216E40
:103EE000000E226EFF0E236E030E246E000E256E52
:103EF000000E266E000E276E000E286E000E296E34
:103F0000000E2A6E640E2B6E000E2C6E000E2D6EAF
:103F1000000E2E6ED7EC03F01BC0FCF11CC0FDF1AF
:103F20001DC0FEF11EC0FFF1000E096E000E14EC64
:103F300004F0DC0E2A6E7F0E2B6EFCC12CF0FDC14E
:103F40002DF0FEC12EF0FFC12FF074EC0EF0060E26
:103F50005C6E300EE82EFED75C2EFCD700D0C2502F
:103F6000C30B0409C26EC280C282C2B2BAEF1FF094
:103F7000BCEF1FF0B5EF1FF0C290C450FF0DF3CFA0
:103F80005CF0F4CF5DF0C3505C26000E5D225CC097
:103F900020F25DC021F20201000E21BFFF0E226F50
:103FA000236F20C21BF021C21CF022C21DF023C2CD
:103FB0001EF0000E1F6E000E206E000E216E000E11
:103FC000226EFF0E236E030E246E000E256E000E71
:103FD000266E000E276E000E286E000E296E000E53
:103FE0002A6E5A0E2B6E000E2C6E000E2D6E000ED9
:103FF0002E6ED7EC03F01BC020F21CC021F21DC0B6
:1040000022F21EC023F220C201F021C202F022C21D
:1040100003F023C204F0000E69EC07F001C011F0B8
:1040200002C012F003C013F004C014F0350E156E78
:10403000FA0E166E8E0E176E3C0E186E68EC10F0AF
:1040400011C0F8F012C0F9F013C0FAF014C0FBF080
:10405000EF0E2A6E7F0E2B6E20C22CF021C22DF0A7
:1040600022C22EF023C22FF074EC0EF0060E5C6E0E
:10407000300EE82EFED75C2EFCD700D082AC43EF8A
:1040800020F045EF20F042EF1FF063EC03F0F8C0A2
:10409000B0F0F9C0B1F0FAC0B2F0FBC0B3F04FEC31
:1040A0001CF0B0C0C6F1B1C0C7F1B2C0C8F1B3C016
:1040B000C9F1CD0E0001D66FCC0ED76F1C0ED86F94
:1040C000410ED96FC6C115F0C7C116F0C8C117F0AF
:1040D000C9C118F0D8900101FC35016EFD35026EA2
:1040E000FE35036EFF35046E000E69EC07F001C06B
:1040F00011F002C012F003C013F004C014F068EC19
:1041000010F011C0D2F012C0D3F013C0D4F014C01C
:10411000D5F0A6EC0CF0D2C088F0D3C089F0D4C0A2
:104120008AF0D5C08BF05FEC06F088C008F289C039
:1041300009F28AC00AF28BC00BF2F8C0B0F0F9C0E5
:10414000B1F0FAC0B2F0FBC0B3F084EC19F0B0C02B
:10415000E2F1B1C0E3F1B2C0E4F1B3C0E5F1E2C114
:1041600015F0E3C116F0E4C117F0E5C118F0FCC189
:1041700001F0FDC102F0FEC103F0FFC104F0000E2A
:1041800069EC07F001C011F002C012F003C013F097
:1041900004C014F068EC10F011C0E6F112C0E7F1B1
:1041A00013C0E8F114C0E9F108C201F009C202F03D
:1041B0000AC203F00BC204F0000E69EC07F001C064
:1041C00015F002C016F003C017F004C018F0E6C1E5
:1041D00011F0E7C112F0E8C113F0E9C114F068EC86
:1041E00010F011C088F012C089F013C08AF014C01A
:1041F0008BF05FEC06F088C010F289C011F28AC023
:1042000012F28BC013F208C25CF009C25DF00AC260
:104210005EF00BC25FF0D8905F325E325D325C328E
:104220005CC001F05DC002F05EC003F05FC004F04E
:10423000000E69EC07F001C0EAF102C0EBF103C027
:10424000ECF104C0EDF1000E0001EB6F000EEC6F1D
:10425000000EED6F400EEE6FEAC1E7F0EBC1E8F043
:10426000ECC1E9F0EDC1EAF08FEC25F0E7C0CAF14E
:10427000E8C0CBF1E9C0CCF1EAC0CDF1F8C0B0F0B4
:10428000F9C0B1F0FAC0B2F0FBC0B3F04FEC1CF0D3
:10429000B0C0BEF1B1C0BFF1B2C0C0F1B3C0C1F196
:1042A000BEC115F0BFC116F0C0C117F0C1C118F0F2
:1042B000FCC101F0FDC102F0FEC103F0FFC104F03A
:1042C000000E69EC07F001C011F002C012F003C04B
:1042D00013F004C014F068EC10F011C0C2F112C069
:1042E000C3F113C0C4F114C0C5F1CD0E156ECC0ED0
:1042F000166E9C0E176E400E186ECAC111F0CBC11F
:1043000012F0CCC113F0CDC114F068EC10F011C064
:104310002EF012C02FF013C030F014C031F008C2DC
:104320005CF009C25DF00AC25EF00BC25FF0D8908B
:104330005F325E325D325C325CC001F05DC002F023
:104340005EC003F05FC004F0000E69EC07F001C02E
:1043500015F002C016F003C017F004C018F0C2C177
:1043600011F0C3C112F0C4C113F0C5C114F068EC60
:1043700010F011C02AF012C02BF013C02CF014C0A2
:104380002DF057EC02F02AC088F02BC089F02CC029
:104390008AF02DC08BF05FEC06F088C00CF289C06B
:1043A0000DF28AC00EF28BC00FF2000E0101F16F08
:1043B000500EF06F000EDF6F070EDE6FF0C109F0D8
:1043C000DE5114EC04F0FB0E2A6E7F0E2B6E74ECA3
:1043D0000EF0000E0101E16F320EE06F000EEF6F84
:1043E000060EEE6FEFBFFEEF21F0EF5109E1080E70
:1043F000EE5DD8A0FEEF21F000EF22F002EF22F0F8
:1044000012EF22F0E0C109F0EE5114EC04F0FD0EC1
:104410002A6E7F0E2B6E74EC0EF00101EE4BEF2B2B
:10442000F2EF21F0000EF66F000EF76F000EF86F3E
:10443000000EF96F000EBD6F000EBC6FF8C0B0F03B
:10444000F9C0B1F0FAC0B2F0FBC0B3F084EC19F0DF
:10445000B0C0E2F1B1C0E3F1B2C0E4F1B3C0E5F144
:10446000E2C115F0E3C116F0E4C117F0E5C118F0A0
:10447000FCC101F0FDC102F0FEC103F0FFC104F078
:10448000000E69EC07F001C011F002C012F003C089
:1044900013F004C014F068EC10F011C0E6F112C083
:1044A000E7F113C0E8F114C0E9F1F6C115F0F7C166
:1044B00016F0F8C117F0F9C118F0E6C111F0E7C124
:1044C00012F0E8C113F0E9C114F068EC10F011C06B
:1044D00088F012C089F013C08AF014C08BF05FEC32
:1044E00006F088C01CF289C01DF28AC01EF28BC083
:1044F0001FF2000E0001EB6F000EEC6F000EED6F6F
:10450000400EEE6FF6C1E7F0F7C1E8F0F8C1E9F050
:10451000F9C1EAF08FEC25F0E7C0CEF1E8C0CFF1A9
:10452000E9C0D0F1EAC0D1F1F8C0B0F0F9C0B1F003
:10453000FAC0B2F0FBC0B3F04FEC1CF0B0C0D2F147
:10454000B1C0D3F1B2C0D4F1B3C0D5F1D2C115F02E
:10455000D3C116F0D4C117F0D5C118F0FCC101F0D9
:10456000FDC102F0FEC103F0FFC104F0000E69ECD2
:1045700007F001C011F002C012F003C013F004C034
:1045800014F068EC10F011C0DAF112C0DBF113C0C6
:10459000DCF114C0DDF1CD0E156ECC0E166E9C0E46
:1045A000176E400E186ECEC111F0CFC112F0D0C1FF
:1045B00013F0D1C114F068EC10F011C02EF012C04D
:1045C0002FF013C030F014C031F0F6C115F0F7C170
:1045D00016F0F8C117F0F9C118F0DAC111F0DBC11B
:1045E00012F0DCC113F0DDC114F068EC10F011C062
:1045F0002AF012C02BF013C02CF014C02DF057EC91
:1046000002F02AC088F02BC089F02CC08AF02DC09F
:104610008BF05FEC06F088C018F289C019F28AC0EE
:104620001AF28BC01BF2010E02010825016E000E6A
:104630000921026E000E0A21036E000E0B21046E8A
:10464000000E69EC07F001C032F002C033F003C085
:1046500034F004C035F0F6C136F0F7C137F0F8C1D8
:1046600038F0F9C139F0DDEC05F0D8A03AEF23F0CD
:104670003CEF23F01EEF22F00201185119111A111C
:104680001B11D8A446EF23F048EF23F050EF23F09E
:10469000000E186F000E196F000E1A6F000E1B6FC0
:1046A00018C201F019C202F01AC203F01BC204F0D2
:1046B0003F0E056E000E066E000E076E000E086EB1
:1046C0005AEC04F0015008080101FA6F0250D8A01A
:1046D000E82A0008FB6FFBBF77EF23F0FB5109E1ED
:1046E000080EFA5DD8A077EF23F079EF23F07DEF85
:1046F00023F0000EFB6F070EFA6FFBBF84EF23F071
:1047000082EF23F088EF23F0000EFB6F000EFA6FAC
:10471000520E0001D66FB80ED76FFE0ED86F400E46
:10472000D96F1CC201F01DC202F01EC203F01FC2ED
:1047300004F0000E69EC07F001C0D2F002C0D3F023
:1047400003C0D4F004C0D5F0A6EC0CF0D2C088F0C1
:10475000D3C089F0D4C08AF0D5C08BF05FEC06F0EE
:1047600088C0F4F189C0F5F1000E0001D66F000E8B
:10477000D76FFF0ED86F400ED96F18C201F019C263
:1047800002F01AC203F01BC204F0000E69EC07F03D
:1047900001C0D2F002C0D3F003C0D4F004C0D5F001
:1047A000A6EC0CF0D2C02EF0D3C02FF0D4C030F065
:1047B000D5C031F0000E2A6E000E2B6E7C0E2C6ED2
:1047C000420E2D6E57EC02F02AC088F02BC089F003
:1047D0002CC08AF02DC08BF05FEC06F088C0D6F1BB
:1047E00089C0D7F1FAC15CF0FBC15DF0D8905C36AE
:1047F0005D36D8905C365D36D8905C365D36D6C175
:104800005EF0D7C15FF05C505E5E5D505F5A080E8F
:104810005E240101F26F000E5F20F36FF3BF1AEF09
:1048200024F0F35109E1080EF25DD8A01AEF24F04C
:104830001CEF24F020EF24F0000EF36F070EF26F50
:10484000F3BF27EF24F025EF24F02BEF24F0000E28
:10485000F36F000EF26FF2C101F0F3C102F0000E2F
:1048600002BEFF0E036E046E010E69EC07F001C07C
:10487000EAF102C0EBF103C0ECF104C0EDF1EAC1D2
:10488000EBF0EBC1ECF0ECC1EDF0EDC1EEF0000EA1
:104890000001E76F000EE86F000EE96F400EEA6F4F
:1048A0008FEC25F0E7C088F0E8C089F0E9C08AF015
:1048B000EAC08BF05FEC06F088C0D8F189C0D9F16E
:1048C000F4C109F00101FA5114EC04F00101D851CE
:1048D00082EC01F0050E0101F0255C6E000EF12165
:1048E0005D6EF4515C5C5D50800A5E6EF551800A2D
:1048F0005E58D8B07EEF24F080EF24F0ACEF24F0C7
:10490000F3BF8CEF24F0F35109E1070EF25DD8A05C
:104910008CEF24F08EEF24F0ACEF24F0FBBF9AEF85
:1049200024F0FB5109E1070EFA5DD8A09AEF24F0BC
:104930009CEF24F0ACEF24F0C80E046E7B0E056EE5
:104940009BEC03F0000E066E030E056EF4EC01F016
:1049500077EC01F042EF1FF0F051F45DF551800A61
:104960005C6EF151800A5C58D8B0B9EF24F0BBEF0F
:1049700024F0F7EF24F010C25CF011C25DF012C217
:104980005EF013C25FF0D8905F325E325D325C320F
:1049900002011C515C5C1D515D581E515E581F5137
:1049A0005F58D8B0D6EF24F0D8EF24F0F7EF24F01A
:1049B0000101FBBFE5EF24F0FB5109E1070EFA5DB1
:1049C000D8A0E5EF24F0E7EF24F0F7EF24F0F3BFF1
:1049D000F3EF24F0F35109E1070EF25DD8A0F3EFF5
:1049E00024F0F5EF24F0F7EF24F09CEF24F0010120
:1049F000DE51FA1907E1DF51FB19D8A402EF25F0C7
:104A000004EF25F03AEF25F0F451F05DF151800A02
:104A10005C6EF551800A5C58D8B011EF25F013EFA9
:104A200025F03AEF25F0050EF0255C6E000EF12121
:104A30005D6E5C50F45DF551800A5E6E5D50800ADB
:104A40005E58D8B026EF25F028EF25F03AEF25F094
:104A5000000E0D6E000E0C6E000E0F6E080E0E6E28
:104A6000FAEC02F0C80E046E770E056E9BEC03F0B4
:104A7000A2EF24F0E051F41907E1E151F519D8A4AF
:104A800044EF25F046EF25F056EF25F0FBBF52EF3F
:104A900025F0FB5109E1060EFA5DD8A052EF25F092
:104AA00054EF25F056EF25F09CEF24F0000E046E35
:104AB000640E036EDFEC01F0F6C101F0F7C102F005
:104AC000F8C103F0F9C104F0CD0E056ECC0E066EF0
:104AD000CC0E076E3D0E086EC3EC14F001C0F6F16B
:104AE00002C0F7F103C0F8F104C0F9F1F6C188F093
:104AF000F7C189F0F8C18AF0F9C18BF05FEC06F0DC
:104B0000000188C014F289C015F20201000E15BF21
:104B1000FF0E166F176F1EEF22F000EF00F0E7C0D8
:104B2000B8F1E8C0B9F1E9C0BAF1EAC0BBF1B8C167
:104B300060F1B9C161F1BAC162F1BBC163F1EBC00F
:104B4000B8F1ECC0B9F1EDC0BAF1EEC0BBF1B8C13B
:104B500084F1B9C185F1BAC186F1BBC187F1FF0EFD
:104B600001016015A86FFF0E6115A96FFF0E621598
:104B7000AA6F7F0E6315AB6FFF0E8415986FFF0E43
:104B80008515996FFF0E86159A6F7F0E87159B6F9F
:104B9000985199119A119B11D8A4D1EF25F0D3EF18
:104BA00025F0DEEF25F0000E0001E76F000EE86F44
:104BB000800EE96F3F0EEA6F97EF3AF0800E6219B0
:104BC00009E13F0E631960116111D8A4EAEF25F0E5
:104BD000ECEF25F0F7EF25F0000E0001E76F000E77
:104BE000E86F800EE96F3F0EEA6F97EF3AF0ABBFC8
:104BF00008EF26F0A805000EA959800EAA597F0ECD
:104C0000AB59D8B006EF26F008EF26F019EF26F0E2
:104C10009BBF17EF26F09805000E9959800E9A5900
:104C20007F0E9B59D8A017EF26F019EF26F035EF2D
:104C300026F0E7C001F0E8C002F0E9C003F0EAC0E6
:104C400004F0EBC005F0ECC006F0EDC007F0EEC0DC
:104C500008F0C3EC14F001C0E7F002C0E8F003C0B4
:104C6000E9F004C0EAF097EF3AF0000E506F000E42
:104C7000516F000E526F000E536F63BF44EF26F06A
:104C800042EF26F010EF27F09BBF50EF26F0800E8A
:104C90009A5D4B0E9B59D8A050EF26F052EF26F0AC
:104CA0005CEF26F0020E506F000E516F000E526F37
:104CB000000E536F10EF27F09BBF68EF26F0800EB9
:104CC0009A5D3F0E9B59D8A068EF26F06AEF26F058
:104CD00010EF27F0170E0001EF6F98C1F0F099C1A7
:104CE000F1F09AC1F2F09BC1F3F0EF677AEF26F092
:104CF00082EF26F0F335F333F233F133F033EF2F55
:104D000075EF26F0810E0001F0250101A06FFF0E66
:104D10000001F1210101A16FFF0E0001F22101014B
:104D2000A26FFF0E0001F3210101A36FA05117082C
:104D30000001EF6F98C1F0F099C1F1F09AC1F2F063
:104D40009BC1F3F0EF67A7EF26F0AFEF26F0F33546
:104D5000F333F233F133F033EF2FA2EF26F0F0C04C
:104D6000ACF1F1C0ADF1F2C0AEF1F3C0AFF10101B1
:104D7000A05117080001EF6FACC1F0F0ADC1F1F028
:104D8000AEC1F2F0AFC1F3F0EF2BCCEF26F0D8902C
:104D9000F037F137F237F337EF2FC7EF26F0010185
:104DA00098510001F01913E1010199510001F11925
:104DB0000EE101019A510001F21909E101019B5133
:104DC0000001F319D8A4E7EF26F0E9EF26F010EF81
:104DD00027F0010E0101AC150001EF6F000E01017B
:104DE000AD150001F06F000E0101AE150001F16F6D
:104DF000000E0101AF150001F26FEF510208010131
:104E0000506F000E0001F0550101516F000E0001BE
:104E1000F1550101526F000E0001F2550101536F6F
:104E2000800E01019A1909E17F0E9B1998119911C1
:104E3000D8A41DEF27F01FEF27F08BEF27F0800E8F
:104E4000AA1909E13F0EAB19A811A911D8A42BEF9B
:104E500027F02DEF27F038EF27F0000E0001E76F65
:104E6000000EE86F800EE96F3F0EEA6F97EF3AF0A1
:104E7000ABBF47EF27F0A805000EA959800EAA592D
:104E80003F0EAB59D8A047EF27F049EF27F065EF69
:104E900027F087BF50EF27F04EEF27F05BEF27F0AA
:104EA000000E0001E76F000EE86F000EE96F000EC4
:104EB000EA6F97EF3AF0EBC0E7F0ECC0E8F0EDC036
:104EC000E9F0EEC0EAF097EF3AF087BF6CEF27F019
:104ED0006AEF27F080EF27F0EBC046F0ECC047F018
:104EE000EDC048F0EEC049F03BEC02F046C0E7F000
:104EF00047C0E8F048C0E9F049C0EAF097EF3AF05F
:104F0000000E0001E76F000EE86F000EE96F000E63
:104F1000EA6F97EF3AF0800E9A1909E13F0E9B195C
:104F200098119911D8A497EF27F099EF27F0C7EFC0
:104F300027F087BFA0EF27F09EEF27F0BDEF27F007
:104F4000000E0001D26F000ED36F800ED46F3F0EA3
:104F5000D56FE7C0D6F0E8C0D7F0E9C0D8F0EAC016
:104F6000D9F0A6EC0CF0D2C0E7F0D3C0E8F0D4C082
:104F7000E9F0D5C0EAF097EF3AF0E7C0E7F0E8C013
:104F8000E8F0E9C0E9F0EAC0EAF097EF3AF0400E45
:104F90008719841185118611D8A4D1EF27F0D3EF9A
:104FA00027F0EFEF27F0E7C011F0E8C012F0E9C0FA
:104FB00013F0EAC014F0E7C015F0E8C016F0E9C03D
:104FC00017F0EAC018F068EC10F011C0E7F012C05A
:104FD000E8F013C0E9F014C0EAF097EF3AF03F0EA2
:104FE0008719841185118611D8A4F9EF27F0FBEFFA
:104FF00027F016EF28F063BF00EF28F002EF28F04B
:1050000016EF28F0E7C03EF0E8C03FF0E9C040F0FE
:10501000EAC041F023EC17F03EC0E7F03FC0E8F0F3
:1050200040C0E9F041C0EAF097EF3AF0E7C001F084
:10503000E8C002F0E9C003F0EAC004F021EC02F09D
:1050400001C070F102C071F103C072F104C073F1CC
:10505000800E0101AA190BE17F0EAB19A811A9114D
:10506000D8B435EF28F037EF28F050EF28F0A851EA
:10507000A911AA11AB11D8B440EF28F042EF28F0E3
:1050800050EF28F0800EAA1909E13F0EAB19A811C4
:10509000A911D8A44EEF28F050EF28F01CEF29F00A
:1050A00070C1B4F171C1B5F172C1B6F173C1B7F19C
:1050B00087BF5FEF28F05DEF28F07AEF28F0000E51
:1050C0000001D26F000ED36F800ED46F3F0ED56FEC
:1050D000B4C1D6F0B5C1D7F0B6C1D8F0B7C1D9F0D8
:1050E000A6EC0CF0D2C0B4F1D3C0B5F1D4C0B6F187
:1050F000D5C0B7F1010163BF82EF28F080EF28F03F
:1051000012EF29F0000EA8250001EF6F000E01013B
:10511000A9210001F06F800E0101AA210001F16FA9
:10512000C00E0101AB210001F26F010150510001DD
:10513000EF11F36F010151510001F011F46F010102
:1051400052510001F111F56F010153510001F211AB
:10515000F66FF351F411F511F611D8A4B2EF28F05F
:10516000B4EF28F0F4EF28F0B4C12EF0B5C12FF061
:10517000B6C130F0B7C131F0B4C12AF0B5C12BF0DF
:10518000B6C12CF0B7C12DF057EC02F02AC0D2F016
:105190002BC0D3F02CC0D4F02DC0D5F0B4C12EF06C
:1051A000B5C12FF0B6C130F0B7C131F0B4C12AF0AB
:1051B000B5C12BF0B6C12CF0B7C12DF057EC02F001
:1051C0002AC0D6F02BC0D7F02CC0D8F02DC0D9F013
:1051D000A6EC0CF0D2C0B4F1D3C0B5F1D4C0B6F196
:1051E000D5C0B7F112EF29F001015005511152114C
:1051F0005311D8A4FEEF28F000EF29F012EF29F0A8
:10520000B4C146F0B5C147F0B6C148F0B7C149F0E6
:105210003BEC02F046C0B4F147C0B5F148C0B6F16E
:1052200049C0B7F1B4C1E7F0B5C1E8F0B6C1E9F0E3
:10523000B7C1EAF097EF3AF0000E886F000E896F61
:10524000800E8A6F3F0E8B6F63BF2BEF29F029EF23
:1052500029F089EF29F05051511152115311D8A45E
:1052600034EF29F036EF29F076EF29F0E7C02EF081
:10527000E8C02FF0E9C030F0EAC031F0E7C02AF012
:10528000E8C02BF0E9C02CF0EAC02DF057EC02F09A
:105290002AC0D2F02BC0D3F02CC0D4F02DC0D5F052
:1052A000E7C02EF0E8C02FF0E9C030F0EAC031F0DE
:1052B000E7C02AF0E8C02BF0E9C02CF0EAC02DF0DE
:1052C00057EC02F02AC0D6F02BC0D7F02CC0D8F093
:1052D0002DC0D9F0A6EC0CF0D2C0E7F0D3C0E8F0B6
:1052E000D4C0E9F0D5C0EAF097EF3AF0500551117B
:1052F00052115311D8A47FEF29F081EF29F089EFE3
:1053000029F0000E886F000E896F800E8A6FBF0E25
:105310008B6F9BBF98EF29F09805000E9959000EEE
:105320009A594D0E9B59D8A098EF29F09AEF29F081
:105330001FEF2CF0ABBFACEF29F0F80EA85DFF0E0D
:10534000A9597F0EAA593F0EAB59D8B0AAEF29F040
:10535000ACEF29F01FEF2AF087BFB1EF29F0B3EFD0
:1053600029F0E9EF29F0600E156E420E166EA20EBE
:10537000176E0D0E186E88C111F089C112F08AC126
:1053800013F08BC114F068EC10F011C0A4F112C03E
:10539000A5F113C0A6F114C0A7F1A4C111F0A5C1D5
:1053A00012F0A6C113F0A7C114F0600E156E420EE4
:1053B000166EA20E176E0D0E186E68EC10F011C06E
:1053C000E7F012C0E8F013C0E9F014C0EAF097EF7C
:1053D0003AF0CA0E156EF20E166E490E176E710E69
:1053E000186E88C111F089C112F08AC113F08BC107
:1053F00014F068EC10F011C0A4F112C0A5F113C0B4
:10540000A6F114C0A7F1A4C111F0A5C112F0A6C164
:1054100013F0A7C114F0CA0E156EF20E166E490EE7
:10542000176E710E186E68EC10F011C0E7F012C024
:10543000E8F013C0E9F014C0EAF097EF3AF0ABBF20
:105440002FEF2AF0080EA85D000EA959800EAA5968
:105450003F0EAB59D8A02FEF2AF031EF2AF0ACEF76
:105460002AF087BF40EF2AF087518611851106E1A7
:105470008405D8B03EEF2AF040EF2AF076EF2AF00C
:10548000600E156E420E166EA20E176E0D0E186E81
:1054900088C111F089C112F08AC113F08BC114F0D8
:1054A00068EC10F011C0A4F112C0A5F113C0A6F170
:1054B00014C0A7F1A4C111F0A5C112F0A6C113F048
:1054C000A7C114F0600E156E420E166EA20E176E76
:1054D0000D0E186E68EC10F011C0E7F012C0E8F085
:1054E00013C0E9F014C0EAF097EF3AF0CA0E156E57
:1054F000F20E166E490E176E710E186E88C111F0FD
:1055000089C112F08AC113F08BC114F068EC10F05D
:1055100011C0A4F112C0A5F113C0A6F114C0A7F1E7
:10552000A4C111F0A5C112F0A6C113F0A7C114F0D7
:10553000CA0E156EF20E166E490E176E710E186EAB
:1055400068EC10F011C0E7F012C0E8F013C0E9F009
:1055500014C0EAF097EF3AF070C101F071C102F0A7
:1055600072C103F073C104F0000E056E000E066EEA
:10557000800E076EBF0E086EC3EC14F001C0B0F1D0
:1055800002C0B1F103C0B2F104C0B3F1000E156E58
:10559000000E166E800E176E3E0E186EB0C111F022
:1055A000B1C112F0B2C113F0B3C114F068EC10F045
:1055B00011C02EF012C02FF013C030F014C031F023
:1055C000AB0E2A6EAA0E2B6EAA0E2C6E3E0E2D6E00
:1055D00057EC02F02AC0A4F12BC0A5F12CC0A6F113
:1055E0002DC0A7F1B0C115F0B1C116F0B2C117F0CE
:1055F000B3C118F0B0C111F0B1C112F0B2C113F0D3
:10560000B3C114F068EC10F011C054F112C055F1A0
:1056100013C056F114C057F1B0C115F0B1C116F066
:10562000B2C117F0B3C118F0A4C111F0A5C112F0B6
:10563000A6C113F0A7C114F068EC10F011C02EF051
:1056400012C02FF013C030F014C031F0000E2A6EDB
:10565000000E2B6E000E2C6E3F0E2D6E57EC02F0DE
:105660002AC048F12BC049F12CC04AF12DC04BF1A2
:1056700054C111F055C112F056C113F057C114F0C6
:1056800048C115F049C116F04AC117F04BC118F0D6
:1056900068EC10F011C044F112C045F113C046F19E
:1056A00014C047F1B0C111F0B1C112F0B2C113F092
:1056B000B3C114F0000E156EAA0E166EB80E176E5A
:1056C0003F0E186E68EC10F011C074F112C075F145
:1056D00013C076F114C077F1700E156EA50E166E1C
:1056E000EC0E176E360E186EB0C111F0B1C112F08B
:1056F000B2C113F0B3C114F068EC10F011C02AF07D
:1057000012C02BF013C02CF014C02DF03B0E156E00
:10571000AA0E166EB80E176E3F0E186E44C111F029
:1057200045C112F046C113F047C114F068EC10F007
:1057300011C02EF012C02FF013C030F014C031F0A1
:1057400057EC02F02AC078F12BC079F12CC07AF125
:105750002DC07BF174C101F075C102F076C103F078
:1057600077C104F078C105F079C106F07AC107F07D
:105770007BC108F0C3EC14F001C080F102C081F1DC
:1057800003C082F104C083F180C1B8F181C1B9F1D5
:1057900082C1BAF183C1BBF1B8C190F1B9C191F135
:1057A000BAC192F1BBC193F1000E01019015B86F1F
:1057B000F00E9115B96FFF0E9215BA6FFF0E93158B
:1057C000BB6FB8C180F1B9C181F1BAC182F1BBC16F
:1057D00083F174C12EF075C12FF076C130F077C11E
:1057E00031F080C12AF081C12BF082C12CF083C13D
:1057F0002DF057EC02F02AC094F12BC095F12CC08B
:1058000096F12DC097F178C12AF079C12BF07AC1B9
:105810002CF07BC12DF094C12EF095C12FF096C1D4
:1058200030F097C131F057EC02F02AC01CF12BC0C8
:105830001DF12CC01EF12DC01FF18DEF33F0000EB5
:105840007C6F000E7D6F000E7E6F000E7F6FABBF12
:1058500035EF2CF0AB5107E1800EAA5DD8B033EFE5
:105860002CF035EF2CF068EF2CF070C111F071C105
:1058700012F072C113F073C114F0000E156E000E19
:10588000166E800E176E4B0E186E68EC10F011C07D
:1058900070F112C071F113C072F114C073F1E80E0F
:1058A00001017C27FF0E7D23FF0E7E23FF0E7F2349
:1058B00070C1B8F171C1B9F172C1BAF173C1BBF174
:1058C000B8C1A8F1B9C1A9F1BAC1AAF1BBC1ABF184
:1058D000170E0001EF6FA8C1F0F0A9C1F1F0AAC145
:1058E000F2F0ABC1F3F0EF6778EF2CF080EF2CF023
:1058F000F335F333F233F133F033EF2F73EF2CF052
:10590000810E0001F025F46FFF0EF121F56FFF0EFF
:10591000F221F66FFF0EF321F76FF45101017C279E
:105920000001F55101017D230001F65101017E23A3
:105930000001F75101017F23FF0EA815AC6FFF0E88
:10594000A915AD6F7F0EAA15AE6F000EAB15AF6F28
:10595000000EAC11A86F000EAD11A96F800EAE1134
:10596000AA6F3F0EAF11AB6FAFBFC6EF2CF0AF51B8
:105970000BE1720EAC5DC40EAD591C0EAE59D8B021
:10598000C4EF2CF0C6EF2CF0D0EF2CF0000EA06F7F
:10599000000EA16F000EA26F000EA36F02EF2DF09C
:1059A000AFBFE2EF2CF0AF510BE1D70EAC5DB30E01
:1059B000AD595D0EAE59D8B0E0EF2CF0E2EF2CF00F
:1059C000ECEF2CF0010EA06F000EA16F000EA26F85
:1059D000000EA36F02EF2DF0000EA06F000EA16F5E
:1059E000000EA26F000EA36F010E7C27000E7D2318
:1059F0007E237F23000EA827000EA923800EAA2352
:105A0000FF0EAB23A8C1B8F1A9C1B9F1AAC1BAF17F
:105A1000ABC1BBF1B8C170F1B9C171F1BAC172F1DA
:105A2000BBC173F170C12AF071C12BF072C12CF0AF
:105A300073C12DF0A0C1EFF0A1C1F0F00001D8902A
:105A4000EF37F037D890EF37F037C80EEF25F66E06
:105A50007F0EF021F76E0900F5CF2EF00900F5CF8B
:105A60002FF00900F5CF30F00A00F5CF31F057ECF8
:105A700002F02AC074F12BC075F12CC076F12DC054
:105A800077F1000E0001D26F000ED36F800ED46F3D
:105A90003F0ED56F70C105F071C106F072C107F0FD
:105AA00073C108F0A0C1EFF0A1C1F0F0D890EF37BA
:105AB000F037D890EF37F037C80EEF25F66E7F0E2F
:105AC000F021F76E0900F5CF01F00900F5CF02F0E3
:105AD0000900F5CF03F00A00F5CF04F0C3EC14F091
:105AE00001C0D6F002C0D7F003C0D8F004C0D9F08E
:105AF000A6EC0CF0D2C078F1D3C079F1D4C07AF121
:105B0000D5C07BF174C111F075C112F076C113F0EC
:105B100077C114F078C115F079C116F07AC117F089
:105B20007BC118F068EC10F011C05CF112C05DF19F
:105B300013C05EF114C05FF15CC16CF15DC16DF129
:105B40005EC16EF15FC16FF16CC1B8F16DC1B9F1A9
:105B50006EC1BAF16FC1BBF1B8C190F1B9C191F199
:105B6000BAC192F1BBC193F1000E01019015B86F5B
:105B7000F00E9115B96FFF0E9215BA6FFF0E9315C7
:105B8000BB6FB8C16CF1B9C16DF1BAC16EF1BBC1E7
:105B90006FF1A8C1EFF0A9C1F0F0AAC1F1F0ABC15B
:105BA000F2F00001F235F233F133F033EF33000E4F
:105BB000EF15F36FF00EF015F46FFF0EF115F56FA2
:105BC000FF0EF215F66F000EF3110101906F000E3B
:105BD0000001F4110101916F000E0001F5110101A6
:105BE000926F200E0001F6110101936FA0C1EFF03A
:105BF000A1C1F0F0A2C1F1F0A3C1F2F0150ED8904E
:105C00000001EF37F037F137F237E82EFFEF2DF0D4
:105C1000010190510001EF25F36F01019151000145
:105C2000F021F46F010192510001F121F56F0101A2
:105C300093510001F221F66F000EF3250101B86FB8
:105C4000000E0001F4210101B96F400E0001F521A1
:105C50000101BA6F000E0001F6210101BB6FB8C14E
:105C600068F1B9C169F1BAC16AF1BBC16BF1A0C1F8
:105C7000EFF0A1C1F0F00001D890EF37F037D890E5
:105C8000EF37F037C80EEF25F66E7F0EF021F76E76
:105C90000900F5CF2EF00900F5CF2FF00900F5CF60
:105CA00030F00A00F5CF31F068C12AF069C12BF05D
:105CB0006AC12CF06BC12DF057EC02F02AC094F1B0
:105CC0002BC095F12CC096F12DC097F170C12AF030
:105CD00071C12BF072C12CF073C12DF094C12EF064
:105CE00095C12FF096C130F097C131F057EC02F01A
:105CF0002AC034F12BC035F12CC036F12DC037F15C
:105D000068C115F069C116F06AC117F06BC118F0CF
:105D10006CC111F06DC112F06EC113F06FC114F0BF
:105D200068EC10F011C02EF012C02FF013C030F04C
:105D300014C031F074C12AF075C12BF076C12CF07B
:105D400077C12DF057EC02F02AC094F12BC095F1E9
:105D50002CC096F12DC097F134C115F035C116F065
:105D600036C117F037C118F06CC111F06DC112F0D7
:105D70006EC113F06FC114F068EC10F011C02EF07A
:105D800012C02FF013C030F014C031F094C12AF0CB
:105D900095C12BF096C12CF097C12DF057EC02F075
