:020000040000FA
:040000004CEF02F0CF
:10027000838283901200838083921200CDCC1C4134
:100280000800FF03000E026E0A0E016E60EC01F022
:100290001200000E0D6E000E0C6E000E0F6E080E9A
:1002A0000E6ECCEC02F01200036E42EC01F0000185
:1002B000FF510318816E838683948388839812008C
:1002C00065EF01F00106D8A0020601500210D8A483
:1002D0006CEF01F06EEF01F062EF01F01200036EBF
:1002E00042EC01F003C081FF839683948388000E63
:1002F000026E010E016E60EC01F0839812000001A5
:10030000FD2BBF0EFD6587EF01F089EF01F08BEF4C
:1003100001F0B80EFD6F000E72EC02F01200056ED7
:10032000080E056096EF01F098EF01F09FEF01F0E5
:100330000550B80F0001FD6F000E72EC02F01200C4
:10034000FF0E056EFF0E066EFF0E076E7F0E086E27
:1003500005C001F006C002F007C003F008C004F0B9
:100360001200BCEF01F0010E026E2C0E016E60EC6B
:1003700001F00306D8A0040603500410D8A4C3EF6C
:1003800001F0C5EF01F0B3EF01F01200D1EF01F081
:10039000030E046EE80E036EB1EC01F00506D8A062
:1003A000060605500610D8A4D8EF01F0DAEF01F0E8
:1003B000C8EF01F01200E6EF01F00AC0D9FF0BC050
:1003C000DAFFDF5038EC05F00A4A0B2A0AC0D9FFE1
:1003D0000BC0DAFFDF50D8A4F0EF01F0F2EF01F02C
:1003E000DDEF01F0120000C205F001C206F002C20A
:1003F00007F003C208F001C005F002C006F003C018
:1004000007F004C008F0089E05C001F006C002F025
:1004100007C003F008C004F012004650471048100F
:100420004910D8B416EF02F018EF02F020EF02F0F6
:10043000000E461A000E471A000E481A800E491A7E
:1004400046C046F047C047F048C048F049C049F0B0
:100450001200000E2E1A000E2F1A000E301A800EF7
:10046000311A2AC001F02BC002F02CC003F02DC0BD
:1004700004F02EC005F02FC006F030C007F031C0E8
:1004800008F095EC14F001C02AF002C02BF003C074
:100490002CF004C02DF012007C0EF66E020EF76EEA
:1004A000000EF86E02EE30F010EE08F00900F5CF05
:1004B000EEFFE550E150FAE102EE00F0300EEE6A98
:1004C000E806FDE10101FF6BFE6BFD6BFC6B00EECE
:1004D000F8F0080EEE6AE806FDE1000EF86E000185
:1004E000FEEF1EF0046E0450D8B479EF02F07BEFFB
:1004F00002F083EF02F00404D8A481EF02F083EF4E
:1005000002F09DEF02F00450D8A489EF02F08BEFC7
:1005100002F08FEF02F038EC01F091EF02F03BECCB
:1005200001F004C0FCF0400E0001FE6FFD516FECC5
:1005300001F00001FE516FEC01F01200000E936E0D
:10054000E00E951638EC01F03F0E6FEC01F03BEC3D
:1005500001F03F0E6FEC01F0000E046E0A0E036E08
:10056000B1EC01F038EC01F0C00E6FEC01F03BECA7
:1005700001F0C00E6FEC01F0000E72EC02F035ECF1
:1005800003F0000E0001FC6FB80EFD6F400EFE6F11
:10059000000E72EC02F012000CC011F00DC012F04F
:1005A000F0EF02F0000E146E000E136E13C009F08F
:1005B0001150E6EC03F0000E54EC01F0134A142A3B
:1005C00014BEECEF02F0145009E1800E135CD8A0C9
:1005D000ECEF02F0EEEF02F0D6EF02F0114A122A31
:1005E0000E50115C1250800A106E0F50800A105885
:1005F000D8A0FDEF02F0FFEF02F0D2EF02F0120000
:10060000000E096E000E0A6E000E0B6E000E0C6ED0
:1006100001A00DEF03F00FEF03F017EF03F005500B
:10062000092606500A2207500B2208500C22D890A7
:100630000536063607360836D890043203320232C1
:1006400001320150021003100410D8A42AEF03F065
:100650002CEF03F008EF03F009C001F00AC002F02C
:100660000BC003F00CC004F01200000E076E38EC53
:1006700001F0400E6FEC01F00750B80F6FEC01F085
:10068000000E066E400E0618D8A449EF03F04BEF9B
:1006900003F054EF03F03BEC01F0400E6FEC01F07F
:1006A0000750B80F6FEC01F0000E54EC01F0062A71
:1006B0007F0E06645EEF03F060EF03F042EF03F09D
:1006C000072A070E076467EF03F069EF03F037EFBF
:1006D00003F0000E8FEC01F01200000E076E38ECF4
:1006E00001F0400E6FEC01F00750B80F6FEC01F015
:1006F000000E066E400E0618D8A481EF03F083EFBB
:1007000003F08CEF03F03BEC01F0400E6FEC01F0D6
:100710000750B80F6FEC01F004C0F6FF05C0F7FFFB
:100720000800F55054EC01F0044A052A062A7F0E11
:1007300006649DEF03F09FEF03F07AEF03F0072AC2
:10074000070E0764A6EF03F0A8EF03F06FEF03F0C6
:1007500012001F501B5C016E20501C58026E21506D
:100760001D58036E22501E58046E27502B5C056ED8
:1007700028502C58066E29502D58076E2A502E5896
:10078000086E00EC03F001C00DF002C00EF003C0D3
:100790000FF004C010F01F50235C116E205024583D
:1007A000126E21502558136E22502658146EB5EC47
:1007B00006F027500D241B6E28500E201C6E295069
:1007C0000F201D6E2A5010201E6E12000A6E080E99
:1007D0000A60EDEF03F0EFEF03F02BEF04F0810E72
:1007E0000960F5EF03F0F7EF03F02BEF04F009C019
:1007F00001F0026A000E046E400E036ED6EC04F0A7
:1008000001500B6E09C001F0026A000E046E3F0E2B
:10081000036E7EEC04F00150096E0B50D8A413EF68
:1008200004F015EF04F019EF04F038EC01F01BEFC1
:1008300004F03BEC01F00BC0FCF00A50B8090001D9
:10084000FD6F09504009FE6FFE516FEC01F0000191
:10085000FD516FEC01F01200000E096E000E0A6EE1
:10086000000E0B6E000E0C6E0550061007100810DF
:10087000D8B43DEF04F03FEF04F075EF04F0010E43
:100880000D6E49EF04F0D890053606360736083667
:100890000D2A08AE4EEF04F050EF04F043EF04F0E1
:1008A000D89009360A360B360C360550015C0650D6
:1008B00002580750035808500458D8A062EF04F0BB
:1008C00064EF04F06DEF04F00550015E0650025A2B
:1008D0000750035A0850045A0980D890083207324A
:1008E000063205320D2E50EF04F009C001F00AC0A7
:1008F00002F00BC003F00CC004F01200000E066EF4
:1009000002BE87EF04F085EF04F08DEF04F0016C78
:10091000021ED8B0022A010E066E04BE94EF04F047
:1009200092EF04F098EF04F0036C041ED8B0042A90
:1009300003500410D8B49FEF04F0A1EF04F0C5EF0A
:1009400004F0010E056EA9EF04F0D89003360436CA
:10095000052A04AEAEEF04F0B0EF04F0A5EF04F00A
:100960000350015C04500258D8A0B9EF04F0BBEF6B
:1009700004F0BFEF04F00350015E0450025AD89017
:1009800004320332052EB0EF04F00650D8B4CBEF9A
:1009900004F0CDEF04F0D1EF04F0016C021ED8B0EA
:1009A000022A01C001F002C002F01200000E066E21
:1009B00004BEDFEF04F0DDEF04F0E5EF04F0036CBC
:1009C000041ED8B0042A010E066E02BEECEF04F03D
:1009D000EAEF04F0F2EF04F0016C021ED8B0022A34
:1009E000010E061A000E086E000E076E035004106A
:1009F000D8B4FDEF04F0FFEF04F027EF05F0010E8F
:100A0000056E07EF05F0D89003360436052A04AECC
:100A10000CEF05F00EEF05F003EF05F0D890073668
:100A200008360350015C04500258D8A01AEF05F0B4
:100A30001CEF05F021EF05F00350015E0450025A4F
:100A40000780D89004320332052E0EEF05F00650D1
:100A5000D8B42DEF05F02FEF05F033EF05F0076C5C
:100A6000081ED8B0082A07C001F008C002F0120022
:100A7000096E000E086E0001FC05D8A442EF05F0D7
:100A800044EF05F059EF05F0FE51056E066A050EBC
:100A90000526000E062206BE59EF05F0065007E1B6
:100AA000800E055CD8B057EF05F059EF05F062EF06
:100AB00005F00A0E0918D8A460EF05F062EF05F002
:100AC00064EF05F07FEC01F00A0E0918D8B46BEF63
:100AD00005F06DEF05F0AEEF05F00950E00F096E7F
:100AE0000001FC51D8A477EF05F079EF05F085EF10
:100AF00005F0800EFE19D8A480EF05F082EF05F016
:100B000085EF05F0010E72EC02F00950050D2D0E77
:100B1000056E750E066EF3500526F4500622085039
:100B20000526000E062205C0F6FF06C0F7FF0800E6
:100B3000F5CF07F0075054EC01F00001FE2B082A16
:100B4000050E0818D8A4A7EF05F0A9EF05F070EF7F
:100B500005F0000E54EC01F00001FE2B1200000E17
:100B600032143A6E000E33143B6E800E34143C6E19
:100B70007F0E35143D6E3A503B103C103D10D8A40A
:100B8000C4EF05F0C6EF05F0CEEF05F0000E326EB3
:100B9000000E336E000E346E000E356E000E3614ED
:100BA0003A6E000E37143B6E800E38143C6E7F0E8A
:100BB00039143D6E3A503B103C103D10D8A4E3EF81
:100BC00005F0E5EF05F0EDEF05F0000E366E000ED6
:100BD000376E000E386E000E396E35AEF2EF05F04E
:100BE000F4EF05F0FDEF05F0326C331ED8B0332A78
:100BF000341ED8B0342A800E355639AE02EF06F0D6
:100C000004EF06F00DEF06F0366C371ED8B0372A29
:100C1000381ED8B0382A800E3956000E321A000E0F
:100C2000331A000E341A800E351A000E361A000ED2
:100C3000371A000E381A800E391A3650325C375087
:100C400033583850345839503558D8B02AEF06F058
:100C50002CEF06F02FEF06F0D89030EF06F0D8809A
:100C6000120000018A358B354F6E4F50D8A43BEFF0
:100C700006F03DEF06F047EF06F0000E886F000E1D
:100C8000896F000E8A6F000E8B6FB4EF06F088C07C
:100C90004AF089C04BF08AC04CF08BC04DF0200E5A
:100CA00057EF06F0D8904D324C324B324A32E82E94
:100CB00052EF06F04A504E6E8A8FFF0E8817FF0ED5
:100CC0008917FF0E8A17000E8B17960E4F5E4FBEC8
:100CD0006EEF06F06CEF06F084EF06F04F50800ADE
:100CE000970FD8B076EF06F078EF06F07AEF06F0BF
:100CF0003DEF06F0D8908B338A33893388334F3EEB
:100D00007AEF06F09CEF06F01F0E4F648AEF06F0B4
:100D10008CEF06F094EF06F03DEF06F0D8908837A0
:100D200089378A378B374F064F50D8A49AEF06F091
:100D30009CEF06F08EEF06F04E50D8B4A2EF06F00E
:100D4000A4EF06F0ACEF06F08B1F8A1F891F886D99
:100D5000000E89238A238B2388C088F089C089F0FC
:100D60008AC08AF08BC08BF01200000E166E14BE83
:100D7000BEEF06F0BCEF06F0C8EF06F0141E131E1F
:100D8000121E116C000E122213221422010E166E76
:100D900010BECFEF06F0CDEF06F0D9EF06F0101E33
:100DA0000F1E0E1E0D6C000E0E220F221022010EC1
:100DB000161A000E176E000E186E000E196E000E39
:100DC0001A6E1150121013101410D8B4EAEF06F076
:100DD000ECEF06F022EF07F0010E156EF6EF06F0CD
:100DE000D8901136123613361436152A14AEFBEF8E
:100DF00006F0FDEF06F0F0EF06F0D8901736183643
:100E000019361A3611500D5C12500E5813500F58E7
:100E100014501058D8A00FEF07F011EF07F01AEF99
:100E200007F011500D5E12500E5A13500F5A145005
:100E3000105A1780D8901432133212321132152EF4
:100E4000FDEF06F01650D8B428EF07F02AEF07F0B0
:100E500032EF07F01A1E191E181E176C000E18220A
:100E600019221A2217C00DF018C00EF019C00FF089
:100E70001AC010F01200096E0950D8B442EF07F002
:100E800044EF07F066EF07F004BE4BEF07F049EFC1
:100E900007F066EF07F001C005F002C006F003C0DE
:100EA00007F004C008F0051E061E071E081E052ACE
:100EB000000E06220722082205C00BF006C00CF027
:100EC00007C00DF008C00EF06EEF07F001C00BF088
:100ED00002C00CF003C00DF004C00EF0015002106F
:100EE00003100410D8A477EF07F079EF07F083EF31
:100EF00007F0000E016E000E026E000E036E000E73
:100F0000046E14EF08F0960E0A6E8DEF07F00A2AB1
:100F1000D8900E320D320C320B32000E0B14056ECF
:100F2000000E0C14066E000E0D14076EFE0E0E144D
:100F3000086E0550061007100810D8A4A2EF07F09D
:100F4000A4EF07F087EF07F0B2EF07F00A2A010ECF
:100F50000B26000E0C220D220E22D8900E320D32DE
:100F60000C320B32000E0B14056E000E0C14066EC4
:100F7000000E0D14076EFF0E0E14086E05500610BD
:100F800007100810D8A4C7EF07F0C9EF07F0A6EFC5
:100F900007F0D1EF07F00A06D8900B360C360D3665
:100FA0000E360DBED6EF07F0D8EF07F0E0EF07F0F2
:100FB000020E0A60DEEF07F0E0EF07F0CBEF07F07C
:100FC0000AB0E5EF07F0E7EF07F0E8EF07F00D9E56
:100FD000D8900A320AC005F0066A076A086A05C096
:100FE00008F0076A066A056A05500B1206500C12D3
:100FF00007500D1208500E120950D8B402EF08F035
:1010000004EF08F00CEF08F004BE0BEF08F009EF56
:1010100008F00CEF08F00E8E0BC001F00CC002F0CF
:101020000DC003F00EC004F012002AC011F02BC056
:1010300012F02CC013F02DC014F02AC015F02BC0F4
:1010400016F02CC017F02DC018F03AEC10F011C0BB
:1010500042F012C043F013C044F014C045F042C047
:1010600011F043C012F044C013F045C014F042C068
:1010700015F043C016F044C017F045C018F03AEC24
:1010800010F011C03EF012C03FF013C040F014C089
:1010900041F0170E156E9A0E166ECC0E176E370EA7
:1010A000186E42C011F043C012F044C013F045C0A6
:1010B00014F03AEC10F011C001F012C002F013C0AD
:1010C00003F014C004F03F0E056E040E066EB60E5B
:1010D000076EBA0E086E95EC14F001C02EF002C037
:1010E0002FF003C030F004C031F0000E056E000E8A
:1010F000066E800E076E3F0E086E000E156E000E17
:10110000166E000E176EBF0E186E42C011F043C06F
:1011100012F044C013F045C014F03AEC10F011C0C6
:1011200001F012C002F013C003F014C004F095ECFB
:1011300014F001C032F002C033F003C034F004C038
:1011400035F042C015F043C016F044C017F045C05A
:1011500018F03EC011F03FC012F040C013F041C083
:1011600014F03AEC10F011C036F012C037F013C092
:1011700038F014C039F09F0E156EAA0E166E2A0EA6
:10118000176E3D0E186E3EC011F03FC012F040C009
:1011900013F041C014F03AEC10F011C005F012C089
:1011A00006F013C007F014C008F032C001F033C0DD
:1011B00002F034C003F035C004F095EC14F001C027
:1011C0003AF002C03BF003C03CF004C03DF03AC02E
:1011D00001F03BC002F03CC003F03DC004F02EC063
:1011E00015F02FC016F030C017F031C018F036C01F
:1011F00011F037C012F038C013F039C014F03AECD7
:1012000010F011C005F012C006F013C007F014C0B2
:1012100008F095EC14F001C02AF002C02BF003C0D6
:101220002CF004C02DF012004AC011F04BC012F097
:101230004CC013F04DC014F04AC015F04BC016F06E
:101240004CC017F04DC018F03AEC10F011C078F017
:1012500012C079F013C07AF014C07BF078C011F09E
:1012600079C012F07AC013F07BC014F078C015F08A
:1012700079C016F07AC017F07BC018F03AEC10F085
:1012800011C064F012C065F013C066F014C067F0BE
:101290003C0E156E6C0E166E360E176E360E186EF0
:1012A00078C011F079C012F07AC013F07BC014F04E
:1012B0003AEC10F011C001F012C002F013C003F0BC
:1012C00014C004F0CF0E056E070E066E500E076EAA
:1012D000B90E086E95EC14F001C060F002C061F028
:1012E00003C062F004C063F078C011F079C012F05E
:1012F0007AC013F07BC014F04AC015F04BC016F052
:101300004CC017F04DC018F03AEC10F011C074F05A
:1013100012C075F013C076F014C077F0AB0E056EF6
:10132000AA0E066E2A0E076EBE0E086E840E156E8D
:10133000880E166E080E176E3C0E186E78C011F0EF
:1013400079C012F07AC013F07BC014F03AEC10F0C0
:1013500011C001F012C002F013C003F014C004F079
:1013600095EC14F001C068F002C069F003C06AF0A7
:1013700004C06BF064C015F065C016F066C017F0CD
:1013800067C018F074C011F075C012F076C013F089
:1013900077C014F03AEC10F011C06CF012C06DF090
:1013A00013C06EF014C06FF04AC005F04BC006F0D9
:1013B0004CC007F04DC008F074C015F075C016F0B1
:1013C00076C017F077C018F068C011F069C012F04D
:1013D0006AC013F06BC014F03AEC10F011C001F0C9
:1013E00012C002F013C003F014C004F095EC14F026
:1013F00001C070F002C071F003C072F004C073F05D
:1014000070C001F071C002F072C003F073C004F04C
:1014100060C015F061C016F062C017F063C018F02C
:101420006CC011F06DC012F06EC013F06FC014F0FC
:101430003AEC10F011C005F012C006F013C007F02E
:1014400014C008F095EC14F001C04AF002C04BF053
:1014500003C04CF004C04DF012002AC038F02BC07D
:1014600039F02CC03AF02DC03BF02FBE41EF0AF00E
:101470002F5009E1800E2E5CD8A041EF0AF043EF17
:101480000AF0A1EF0AF038C011F039C012F03AC0EA
:1014900013F03BC014F0000E156E000E166E000E19
:1014A000176E7F0E186E3AEC10F011C038F012C0B3
:1014B00039F013C03AF014C03BF0810E2E26FF0E17
:1014C0002F222FBE6DEF0AF02F5009E1800E2E5C07
:1014D000D8A06DEF0AF06FEF0AF00BEF0BF038C0F9
:1014E00011F039C012F03AC013F03BC014F0000EF6
:1014F000156E000E166E000E176E7F0E186E3AEC0B
:1015000010F011C038F012C039F013C03AF014C016
:101510003BF0810E2E26FF0E2F222FBE99EF0AF0F0
:101520002F5009E1800E2E5CD8A099EF0AF09BEFB6
:101530000AF00BEF0BF0000E2F6E7F0E2E6E0BEFEE
:101540000BF02FAEADEF0AF0820E2E5CFF0E2F587F
:10155000D8B0ADEF0AF0AFEF0AF00BEF0BF038C0E8
:1015600011F039C012F03AC013F03BC014F0000E75
:10157000156E000E166E800E176E0C0E186E3AEC7D
:1015800010F011C038F012C039F013C03AF014C096
:101590003BF0660E2E26000E2F222FAED9EF0AF05A
:1015A000820E2E5CFF0E2F58D8B0D9EF0AF0DBEF79
:1015B0000AF00BEF0BF038C011F039C012F03AC04E
:1015C00013F03BC014F0000E156E000E166E800E68
:1015D000176E0C0E186E3AEC10F011C038F012C0F5
:1015E00039F013C03AF014C03BF0660E2E26000E00
:1015F0002F222FAE05EF0BF0820E2E5CFF0E2F5820
:10160000D8B005EF0BF007EF0BF00BEF0BF0FF0E70
:101610002F6E820E2E6E7F0E2E24306E000E2F2027
:10162000316E326A336A170ED89030363136323620
:101630003336E82E14EF0BF030C034F031C035F003
:1016400032C036F033C037F034C011F035C012F07C
:1016500036C013F037C014F038C015F039C016F09A
:101660003AC017F03BC018F03AEC10F011C02AF065
:1016700012C02BF013C02CF014C02DF02AC02AF099
:101680002BC02BF02CC02CF02DC02DF01200286E9A
:10169000020E2818D8A44FEF0BF051EF0BF090EF8B
:1016A0000BF086EF0BF012C013F0FF0E1326010EA5
:1016B000146E156A166A176A132A64EF0BF0D89035
:1016C0001436153616361736132E5FEF0BF00E5004
:1016D0001414186E0F501514196E105016141A6E3B
:1016E000115017141B6E185019101A101B10D8A483
:1016F0007CEF0BF07FEF0BF0010E80EF0BF0000E94
:10170000296E2950300F38EC05F012061250D8A47B
:101710008CEF0BF08EEF0BF053EF0BF077EF0CF03C
:101720000E500F1010101110D8A499EF0BF09BEF72
:101730000BF0B6EF0BF0000E296EA3EF0BF0300E9E
:1017400038EC05F0292A1250295CD8B0AAEF0BF02A
:10175000ACEF0BF077EF0CF0090E2964B2EF0BF051
:10176000B4EF0BF09FEF0BF077EF0CF0000E296E4B
:1017700013EF0CF00E500F1010101110D8B4C3EF6F
:101780000BF0C5EF0BF0F8EF0BF01C0E2924D96E0F
:10179000DA6A000EDA220EC001F00FC002F010C0AB
:1017A00003F011C004F02850056E066A076A086A43
:1017B0002CEC04F001502802F3500E5CDF6E0EC0DA
:1017C00001F00FC002F010C003F011C004F0285067
:1017D000056E066A076A086A2CEC04F001C00EF078
:1017E00002C00FF003C010F004C011F012EF0CF0B3
:1017F0001228D8B4FEEF0BF000EF0CF06FEF0CF0F6
:101800000A0E126406EF0CF008EF0CF00AEF0CF071
:101810006FEF0CF01C0E2924D96EDA6A000EDA2262
:10182000000EDF6E292A1250295CD8A01AEF0CF0A6
:101830001CEF0CF0BAEF0BF06FEF0CF0FF0E136E15
:10184000FF0E146E2950156E166A1350152614508B
:1018500016221C0E1524D96E000E1620DA6E0A0E02
:10186000DF6035EF0CF037EF0CF052EF0CF0FF0EAD
:10187000136EFF0E146E2950156E166A135015263E
:10188000145016221C0E1524D96E000E1620DA6E86
:10189000DF50176E300E1724266E276A000E27229F
:1018A0006BEF0CF0FF0E136EFF0E146E2950156EC9
:1018B000166A13501526145016221C0E1524D96EC4
:1018C000000E1620DA6EDF50176E370E1724266EC4
:1018D000276A000E2722265038EC05F029062950E9
:1018E000D8A475EF0CF077EF0CF01EEF0CF012009F
:1018F0000001D551800BDE6FD551D525E56FD4AFF2
:1019000084EF0CF086EF0CF087EF0CF0E581E551E9
:10191000D8B48DEF0CF08FEF0CF0A4EF0CF0E529AC
:10192000D8A495EF0CF097EF0CF09FEF0CF0000EA1
:10193000D26F000ED36F000ED46F000ED56FD48F10
:10194000000ED56FACEF0CF0000ED26F000ED36F0F
:10195000000ED46F000ED56FD951800BDE1BD9510C
:10196000D925E66FD8AFB7EF0CF0B9EF0CF0BAEFAE
:101970000CF0E681E651D8B4C0EF0CF0C2EF0CF0E9
:10198000D7EF0CF0E629D8A4C8EF0CF0CAEF0CF0A2
:10199000D2EF0CF0000ED66F000ED76F000ED86F8E
:1019A000000ED96FD88F000ED96FDFEF0CF0000E4C
:1019B000D66F000ED76F000ED86F000ED96FD651BC
:1019C000D711D811D911D8A4E8EF0CF0EAEF0CF038
:1019D00002EF0DF0000ED26F000ED36F000ED46F29
:1019E000000ED56F800ED4137F0ED513DE51D513A4
:1019F000D2C0D2F0D3C0D3F0D4C0D4F0D5C0D5F08B
:101A000045EF0EF0E551D8A408EF0DF00AEF0DF008
:101A100014EF0DF0000ED26F000ED36F000ED46FD6
:101A2000000ED56F45EF0EF0E651E5C058F0596A4B
:101A3000585E000E595A7F0E5824DF6F000E592051
:101A4000E06FD2C0DAF0D3C0DBF0D4C0DCF0D5C098
:101A5000DDF0000ED26F000ED36F000ED46F000EBB
:101A6000D56F000EE16F000EE26F000EE36F000E07
:101A7000E46F000EE66F75EF0DF0E651D8B443EF5A
:101A80000DF045EF0DF05CEF0DF0D890DA37DB3755
:101A9000DC37DD37D890D237D337D437D537E4AFFA
:101AA00054EF0DF056EF0DF057EF0DF0D281D890B6
:101AB000E137E237E337E437D651DA5DD751DB5906
:101AC000D851DC59D951DD59D8A069EF0DF06BEF31
:101AD0000DF074EF0DF0E48DD651DA5FD751DB5B7A
:101AE000D851DC5BD951DD5BE62B190EE6657BEF47
:101AF0000DF07DEF0DF03DEF0DF0DA51DB11DC1153
:101B0000DD11D8B486EF0DF088EF0DF0A0EF0DF0E9
:101B1000E181A0EF0DF0D890D237D337D437D53745
:101B2000E4AF95EF0DF097EF0DF098EF0DF0D28147
:101B3000D890E137E237E337E437DF07D8A0E00792
:101B4000D4AFA5EF0DF0A7EF0DF08BEF0DF0000E69
:101B5000E66FE4AFAEEF0DF0B0EF0DF0D4EF0DF0A7
:101B6000FF0EE115586EFF0EE215596EFF0EE315DC
:101B70005A6E7F0EE4155B6E585059105A105B1068
:101B8000D8B4C5EF0DF0C7EF0DF0CBEF0DF0010E9F
:101B9000E66FD4EF0DF0D2A1D0EF0DF0D2EF0DF043
:101BA000D4EF0DF0C7EF0DF0E651D8B4DAEF0DF039
:101BB000DCEF0DF000EF0EF0010ED227000ED32364
:101BC000D423D523D5A1E7EF0DF0E9EF0DF000EF19
:101BD0000EF0D2C058F0D3C059F0D4C05AF0D5C0DE
:101BE0005BF05B345B325A325932583258C0D2F013
:101BF00059C0D3F05AC0D4F05BC0D5F0DF4BE02B16
:101C0000E0BF0BEF0EF0E05108E1DF29D8A00BEFA9
:101C10000EF00DEF0EF018EF0EF0000EE06FDF6922
:101C2000000ED26F000ED36F000ED46F000ED56F72
:101C3000E0BF25EF0EF0E05106E1DF05D8B023EF5D
:101C40000EF025EF0EF033EF0EF0000EE06F000EF9
:101C5000DF6F000ED26F000ED36F000ED46F000E38
:101C6000D56F000EDE6FDFC0E5F0E5A13AEF0EF0B4
:101C70003CEF0EF03FEF0EF0D48F40EF0EF0D49F0C
:101C8000D890E531D56FF6EF0CF012002C0E426EB5
:101C9000000E436E2AC03EF02BC03FF02BEF10F039
:101CA0003EC0F6FF3FC0F7FF0800F5CF40F0250E1D
:101CB0004018D8A45EEF0EF060EF0EF026EF10F0A3
:101CC0003E4A3F2A3EC0F6FF3FC0F7FF0800F5CF6F
:101CD00040F02F0E40646FEF0EF071EF0EF09EEFAC
:101CE0000EF03A0E406077EF0EF079EF0EF09EEFB7
:101CF0000EF0000E416E8CEF0EF041500A0DF350C5
:101D00004024D00F416E3E4A3F2A3EC0F6FF3FC0FE
:101D1000F7FF0800F5CF40F02F0E406492EF0EF071
:101D200094EF0EF0A1EF0EF0390E40649AEF0EF032
:101D30009CEF0EF07DEF0EF0DBEF0FF04168DBEF74
:101D40000FF0DBEF0FF042C0D9FF43C0DAFFDF50E6
:101D5000406E020E4226000E4322405038EC05F041
:101D600029EF10F042C0D9FF43C0DAFFDECF34F0D4
:101D7000DDCF35F0020E4226000E432235BEC5EF00
:101D80000EF0C3EF0EF0CCEF0EF0346C351ED8B071
:101D9000352A2D0E38EC05F034C00EF035C00FF0AA
:101DA000000E0FBEFF0E106E116E41C012F00A0E33
:101DB00047EC0BF029EF10F042C0D9FF43C0DAFF27
:101DC000DECF36F0DDCF37F0020E4226000E432282
:101DD00037BEEFEF0EF0EDEF0EF0F6EF0EF0366CD3
:101DE000371ED8B0372A2D0E38EC05F036C00EF06D
:101DF00037C00FF0000E0FBEFF0E106E116E41C007
:101E000012F00A0E47EC0BF029EF10F042C0D9FF98
:101E100043C0DAFFDECF3CF0DDCF3DF0020E4226BC
:101E2000000E43223CC00EF03DC00FF0106A116A54
:101E300041C012F00A0E47EC0BF029EF10F042C03F
:101E4000D9FF43C0DAFFDECF38F0DECF39F0DECF86
:101E50003AF0DECF3BF0040E4226000E432238C09B
:101E60000EF039C00FF03AC010F03BC011F041C085
:101E700012F00A0E47EC0BF029EF10F042C0D9FF28
:101E800043C0DAFFDECF3CF0DDCF3DF0020E42264C
:101E9000000E43223CC00EF03DC00FF0106A116AE4
:101EA00041C012F0100E47EC0BF029EF10F042C0C9
:101EB000D9FF43C0DAFFDECF38F0DECF39F0DECF16
:101EC0003AF0DECF3BF0040E4226000E432238C02B
:101ED0000EF039C00FF03AC010F03BC011F041C015
:101EE00012F0100E47EC0BF029EF10F042C0D9FFB2
:101EF00043C0DAFFDECF3CF0DDCF3DF0020E4226DC
:101F0000000E43224128D8A488EF0FF08AEF0FF08B
:101F10008CEF0FF0100E416E3CC00EF03DC00FF084
:101F2000106A116A41C012F0020E47EC0BF029EF63
:101F300010F042C0D9FF43C0DAFFDECF38F0DECF69
:101F400039F0DECF3AF0DECF3BF0040E4226000E31
:101F500043224128D8A4AFEF0FF0B1EF0FF0B3EF59
:101F60000FF0100E416E38C00EF039C00FF03AC0BD
:101F700010F03BC011F041C012F0020E47EC0BF024
:101F800029EF10F042C0D9FF43C0DAFFDECF32F0B4
:101F9000DDCF33F0020E4226000E432232C00AF09B
:101FA00033C00BF0DBEC01F029EF10F0250E38EC1C
:101FB00005F029EF10F04050306E316A3150000AC0
:101FC000D8B4E5EF0FF029EF10F03050250AD8B45F
:101FD000D6EF0FF0670AD8B499EF0FF0010AD8B422
:101FE000A3EF0EF0070AD8B4DCEF0EF0020AD8B463
:101FF00024EF10F0150AD8B4C2EF0FF0060AD8B4D7
:102000001FEF0FF00D0AD8B457EF0FF03A0AD8B40B
:1020100076EF0FF0010AD8B4A3EF0EF0070AD8B498
:10202000B2EF0EF0020AD8B429EF10F0150AD8B4B6
:10203000C2EF0FF0060AD8B406EF0FF00D0AD8B4BD
:102040003EEF0FF029EF10F029EF10F0405038EC80
:1020500005F03E4A3F2A3EC0F6FF3FC0F7FF0800AA
:10206000F5500009D8A437EF10F039EF10F050EF19
:102070000EF012001450800B1D6E14501424236EA9
:1020800013AE45EF10F047EF10F048EF10F023804B
:102090002350D8B44EEF10F050EF10F063EF10F073
:1020A0002328D8A456EF10F058EF10F060EF10F08E
:1020B000000E116E000E126E000E136E000E146EE6
:1020C000138E6BEF10F0000E116E000E126E000EEC
:1020D000136E000E146E1850800B1D1A1850182421
:1020E000226E17AE76EF10F078EF10F079EF10F067
:1020F00022802250D8B47FEF10F081EF10F094EFDF
:1021000010F02228D8A487EF10F089EF10F091EF9B
:1021100010F0000E156E000E166E000E176E000EFB
:10212000186E178E9CEF10F0000E156E000E166ED6
:10213000000E176E000E186E2250D8B4A2EF10F0E9
:10214000A4EF10F0ACEF10F02350D8A4AAEF10F0D9
:10215000ACEF10F0B6EF10F0000E116E000E126E24
:10216000000E136E000E146E4EEF12F01750110297
:10217000F3CF28F0F4CF29F028501E6E1F6A206A92
:10218000216A2950246E256A266A276A165012028F
:10219000F3CF28F0F4CF29F028501E26000E1F227E
:1021A0002022212229502426000E25222622272201
:1021B00015501302F3CF28F0F4CF29F028501E2633
:1021C000000E1F222022212229502426000E252223
:1021D0002622272220C021F01FC020F01EC01FF0A1
:1021E0001E6A15501202F3CF28F0F4CF29F02850C0
:1021F0001E2629501F22000E2022000E21221650DA
:102200001102F3CF28F0F4CF29F028501E262950D0
:102210001F22000E2022000E212220C021F01FC00C
:1022200020F01EC01FF01E6A15501102F3CF28F0D7
:10223000F4CF29F028501E2629501F22000E2022FC
:10224000000E212217501202F3CF28F0F4CF29F00C
:102250002850242629502522000E2622000E27224F
:1022600016501302F3CF28F0F4CF29F0285024267B
:1022700029502522000E2622000E27221750130275
:10228000F3CF28F0F4CF29F02850196E29501A6E98
:102290001B6A1C6A1BC01CF01AC01BF019C01AF084
:1022A000196A195024261A5025221B5026221C5028
:1022B00027221EC019F01FC01AF020C01BF021C039
:1022C0001CF0190E69EF11F0D8901C321B321A3233
:1022D0001932E82E64EF11F0195024261A502522E5
:1022E0001B5026221C50272220C021F01FC020F0A6
:1022F0001EC01FF01E6A225023C019F01A6A192648
:10230000000E1A22820E1924286EFF0E1A20296E42
:102310009FEF11F0D890243625362636273621AE89
:1023200094EF11F096EF11F097EF11F02480D89010
:102330001E361F36203621362806D8A0290626AE9E
:10234000A4EF11F0A6EF11F08AEF11F0000E226E4B
:1023500021AEADEF11F0AFEF11F0D3EF11F0FF0EA2
:102360001E14196EFF0E1F141A6EFF0E20141B6E22
:102370007F0E21141C6E19501A101B101C10D8B49B
:10238000C4EF11F0C6EF11F0CAEF11F0010E226E8A
:10239000D3EF11F024A0CFEF11F0D1EF11F0D3EF74
:1023A00011F0C6EF11F02250D8B4D9EF11F0DBEFE5
:1023B00011F0FFEF11F0010E2426000E2522262237
:1023C000272227A0E6EF11F0E8EF11F0FFEF11F060
:1023D00024C019F025C01AF026C01BF027C01CF03D
:1023E0001C341C321B321A32193219C024F01AC0A4
:1023F00025F01BC026F01CC027F0284A292A29BE38
:102400000AEF12F0295008E12828D8A00AEF12F0AC
:102410000CEF12F016EF12F0000E246E000E256E77
:10242000800E266E7F0E276E44EF12F029BE23EF3A
:1024300012F0295006E12804D8B021EF12F023EF62
:1024400012F02FEF12F0000E246E000E256E000E1B
:10245000266E000E276E000E1D6E44EF12F028C08F
:1024600023F0FF0E2416FF0E25167F0E2616000EF3
:10247000271623A03EEF12F040EF12F041EF12F0CA
:10248000268ED8902330276E1D50271224C011F0BD
:1024900025C012F026C013F027C014F0120004C2A9
:1024A0009CF005C29DF006C29EF007C29FF08CC052
:1024B0009CF08DC09DF08EC09EF08FC09FF09CC0A0
:1024C00050F09DC051F09EC052F09FC053F0200EBE
:1024D0006FEF12F0D8905332523251325032E82E10
:1024E0006AEF12F050C09AF051C09BF0FF0E00014D
:1024F0009C15966FFF0E9D15976FFF0E9E15986F9A
:102500007F0E9F15996F800E985D7F0E9959D8A008
:102510008CEF12F08EEF12F0B3EF12F08CC02AF0B5
:102520008DC02BF08EC02CF08FC02DF08CC02EF003
:102530008DC02FF08EC030F08FC031F029EC02F04A
:1025400090C0D9FF91C0DAFF2AC0DEFF2BC0DEFFAA
:102550002CC0DEFF2DC0DEFF000E00018D6F000ECF
:102560008C6F94EF14F0DB0E965D0F0E9759C90E29
:1025700098594D0E9959D8B0C0EF12F0C2EF12F031
:10258000B1EF13F08CC001F08DC002F08EC003F0EB
:102590008FC004F0F3EC01F001C0A8F002C0A9F074
:1025A00003C0AAF004C0ABF0000E056E000E066E6C
:1025B000000E076E3F0E086E830E156EF90E166E36
:1025C000220E176E3F0E186EA8C011F0A9C012F0AF
:1025D000AAC013F0ABC014F03AEC10F011C001F037
:1025E00012C002F013C003F014C004F095EC14F014
:1025F00001C088F002C089F003C08AF004C08BF0EB
:1026000031EC06F088C0ACF089C0ADF08AC0AEF005
:102610008BC0AFF0ACC001F0ADC002F0AEC003F0B3
:10262000AFC004F0010E3BEC07F001C0A4F002C003
:10263000A5F003C0A6F004C0A7F0DA0E156E0F0EC9
:10264000166EC90E176E3F0E186EA4C011F0A5C00D
:1026500012F0A6C013F0A7C014F03AEC10F011C0AD
:102660002EF012C02FF013C030F014C031F0A8C00B
:102670002AF0A9C02BF0AAC02CF0ABC02DF029EC99
:1026800002F02AC0A0F02BC0A1F02CC0A2F02DC0F7
:10269000A3F0A0C02AF0A1C02BF0A2C02CF0A3C0D0
:1026A0002DF0A30E156E850E166E880E176E320E67
:1026B000186EA4C011F0A5C012F0A6C013F0A7C0F8
:1026C00014F03AEC10F011C02EF012C02FF013C02D
:1026D00030F014C031F029EC02F090C0D9FF91C065
:1026E000DAFF2AC0DEFF2BC0DEFF2CC0DEFF2DC0CC
:1026F000DEFF00019A519B11D8B481EF13F083EFF4
:1027000013F0ABEF13F090C0D9FF91C0DAFFDECF2A
:1027100046F0DECF47F0DECF48F0DECF49F00DECDB
:1027200002F090C0D9FF91C0DAFF46C0DEFF47C07B
:10273000DEFF48C0DEFF49C0DEFFACC050F0ADC0D8
:1027400051F0501E511E504A512A50C08CF051C0B9
:102750008DF094EF14F0ACC08CF0ADC08DF094EF20
:1027600014F08CC001F08DC002F08EC003F08FC059
:1027700004F0F3EC01F001C0A8F002C0A9F003C01E
:10278000AAF004C0ABF0000E056E000E066E000E3F
:10279000076E3F0E086E830E156EF90E166E220E32
:1027A000176E3F0E186EA8C011F0A9C012F0AAC093
:1027B00013F0ABC014F03AEC10F011C001F012C0ED
:1027C00002F013C003F014C004F095EC14F001C043
:1027D00088F002C089F003C08AF004C08BF031ECAD
:1027E00006F088C0ACF089C0ADF08AC0AEF08BC0F6
:1027F000AFF0ACC001F0ADC002F0AEC003F0AFC0AE
:1028000004F0010E3BEC07F001C0A4F002C0A5F0FB
:1028100003C0A6F004C0A7F0DA0E156E0F0E166EF8
:10282000C90E176E3F0E186EA4C011F0A5C012F0AD
:10283000A6C013F0A7C014F03AEC10F011C02EF0AF
:1028400012C02FF013C030F014C031F0A8C02AF02D
:10285000A9C02BF0AAC02CF0ABC02DF029EC02F0DF
:102860002AC0A0F02BC0A1F02CC0A2F02DC0A3F074
:10287000A0C02AF0A1C02BF0A2C02CF0A3C02DF064
:10288000A30E156E850E166E880E176E320E186E1C
:10289000A4C011F0A5C012F0A6C013F0A7C014F098
:1028A0003AEC10F011C02EF012C02FF013C030F02F
:1028B00014C031F029EC02F02AC092F02BC093F042
:1028C0002CC094F02DC095F000019A519B11D8B402
:1028D0006CEF14F06EEF14F086EF14F092C046F037
:1028E00093C047F094C048F095C049F00DEC02F059
:1028F00090C0D9FF91C0DAFF46C0DEFF47C0DEFFBF
:1029000048C0DEFF49C0DEFF9DEF13F090C0D9FF45
:1029100091C0DAFF92C0DEFF93C0DEFF94C0DEFFFD
:1029200095C0DEFFABEF13F012000450800B0D6E6C
:10293000045004240F6E03AEA0EF14F0A2EF14F0C5
:10294000A3EF14F00F800F50D8B4A9EF14F0ABEF41
:1029500014F0C0EF14F00F28D8A4B1EF14F0B3EFC7
:1029600014F0BBEF14F0000E016E000E026E000EAC
:10297000036E000E046E038E000E046EC8EF14F09A
:10298000000E016E000E026E000E036E000E046E4D
:102990000850800B0E6E0D500E18D8B4D2EF14F004
:1029A000D4EF14F0D5EF14F00D8C085008240E6EFF
:1029B00007AEDDEF14F0DFEF14F0E0EF14F00E805F
:1029C0000E50D8B4E6EF14F0E8EF14F0FDEF14F079
:1029D0000E28D8A4EEEF14F0F0EF14F0F8EF14F096
:1029E000000E056E000E066E000E076E000E086EDD
:1029F000078E000E086E05EF15F0000E056E000E36
:102A0000066E000E076E000E086E0F500E5CD8B0FA
:102A10000CEF15F00EEF15F035EF15F00DAC13EFD0
:102A200015F015EF15F017EF15F0800E0D1A0FC009
:102A300010F00EC00FF010C00EF001C010F005C075
:102A400001F010C005F002C010F006C002F010C086
:102A500006F003C010F007C003F010C007F004C078
:102A600010F008C004F010C008F0000E106E0F50F7
:102A70000EC009F00A6A095E000E0A5A0ABE4AEF41
:102A800015F00A5009E11A0E095CD8A04AEF15F0BA
:102A90004CEF15F083EF15F00150021003100410F5
:102AA000D8A455EF15F058EF15F0010E59EF15F0B9
:102AB000000E106E000E016E000E026E000E036E10
:102AC000000E046E0EC00FF08CEF15F010A06BEF2F
:102AD00015F06DEF15F073EF15F0D8901030010977
:102AE000106E75EF15F0D890103201A07AEF15F046
:102AF0007CEF15F07DEF15F0108E043404320332B4
:102B0000023201320F2A0E500F5CD8A08AEF15F066
:102B10008CEF15F066EF15F00DBC91EF15F093EF0B
:102B200015F0D3EF15F00F50D8A499EF15F09BEFE7
:102B300015F0A5EF15F0000E016E000E026E000EEE
:102B4000036E000E046EF4EF16F0055001260650D9
:102B50000222075003220850042204A0B2EF15F00D
:102B6000B4EF15F060EF16F010A0B9EF15F0BBEF61
:102B700015F0C1EF15F0D89010300109106EC3EFB9
:102B800015F0D890103201A0C8EF15F0CAEF15F07B
:102B9000CBEF15F0108E04340432033202320132CE
:102BA0000F2A60EF16F00550015C065002580750DE
:102BB00003580450800A096E0850800A0958D8B09A
:102BC000E4EF15F0E6EF15F011EF16F00150055C9B
:102BD000096E025006580A6E035007580B6E0450D7
:102BE00008580C6EFF0E0924016EFF0E0A20026EBB
:102BF000FF0E0B20036EFF0E0C20046E800E0D1ACC
:102C0000106C1050D8A407EF16F009EF16F019EF6A
:102C100016F0010E0126000E02220322042219EFF3
:102C200016F00550015E0650025A0750035A08502C
:102C3000045A0150021003100410D8A422EF16F019
:102C400024EF16F059EF16F01050D8A42AEF16F022
:102C50002CEF16F059EF16F0000E016E000E026E0A
:102C6000000E036E000E046EF4EF16F0D8900136DD
:102C700002360336043610AE40EF16F042EF16F07F
:102C800043EF16F0018010A048EF16F04AEF16F05F
:102C90004EEF16F0D880103650EF16F0D890103660
:102CA0000F50D8B456EF16F058EF16F059EF16F053
:102CB0000F0603AE5EEF16F060EF16F036EF16F07B
:102CC000000E0E6E10AE67EF16F069EF16F081EF92
:102CD00016F010C009F07F0E0916D8B472EF16F086
:102CE00074EF16F078EF16F0010E0E6E81EF16F00D
:102CF00001A07DEF16F07FEF16F081EF16F074EF74
:102D000016F00E50D8B487EF16F089EF16F0B4EF36
:102D100016F0010E0126000E02220322042204A056
:102D200094EF16F096EF16F0B4EF16F001C009F02C
:102D300002C00AF003C00BF004C00CF00C340C32DB
:102D40000B320A32093209C001F00AC002F00BC08E
:102D500003F00CC004F00F28D8B4B1EF16F0B3EFB5
:102D600016F0B4EF16F00F2A0F28D8B4BAEF16F009
:102D7000BCEF16F0C4EF16F00F50D8A4C2EF16F057
:102D8000C4EF16F0D6EF16F0000E016E000E026EC4
:102D9000000E036E000E046E0F50D8A4D2EF16F092
:102DA000D4EF16F0D6EF16F0000E0D6E0FA0DBEF8D
:102DB00016F0DDEF16F0E0EF16F0038EE1EF16F0FF
:102DC000039ED8900F30046E0DAEE9EF16F0EBEFD6
:102DD00016F0ECEF16F0048E01C001F002C002F014
:102DE00003C003F004C004F012003EC06CF03FC00A
:102DF0006DF040C06EF041C06FF06CC084F06DC0EB
:102E000085F06EC086F06FC087F0000E000184155B
:102E1000426E000E8515436E800E8615446E7F0E41
:102E20008715456E800E441809E17F0E4518421043
:102E30004310D8A41EEF17F020EF17F04EEF17F055
:102E40003EC015F03FC016F040C017F041C018F06A
:102E50003EC011F03FC012F040C013F041C014F06A
:102E60003AEC10F011C001F012C002F013C003F0F0
:102E700014C004F03EC005F03FC006F040C007F0AB
:102E800041C008F095EC14F001C03EF002C03FF0E4
:102E900003C040F004C041F055EF19F087BF5DEF6B
:102EA00017F087518611851106E18405D8B05BEFD4
:102EB00017F05DEF17F09AEF17F0FF0E8415426ED2
:102EC000FF0E8515436EFF0E8615446E7F0E871527
:102ED000456E4250431044104510D8A472EF17F0CD
:102EE00074EF17F07EEF17F03EC03EF03FC03FF0AA
:102EF00040C040F041C041F055EF19F087BF85EF69
:102F000017F083EF17F09AEF17F0000E0201296F08
:102F1000210E286FFB0E016E7F0E026EA0EC01F0F9
:102F200001C03EF002C03FF003C040F004C041F0D9
:102F300055EF19F0170E426E84C043F085C044F07F
:102F400086C045F087C046F04266A9EF17F0B1EFA2
:102F500017F046344632453244324332422EA4EF13
:102F600017F043C07CF044C07DF045C07EF046C001
:102F70007FF000017C517D117E117F11D8A4C3EF39
:102F800017F0C5EF17F0F5EF17F0000E686F000EA1
:102F9000696F000E6A6F000E6B6FDAEF17F0D89052
:102FA0008437853786378737010E6827000E6923F7
:102FB0006A236B2386AFDFEF17F0E1EF17F0CFEF57
:102FC00017F0FF0E6825426EFF0E6921436EFF0E5B
:102FD0006A21446EFF0E6B21456E42507C5F435068
:102FE0007D5B44507E5B45507F5B810E7C27FF0EEE
:102FF0007D23FF0E7E23FF0E7F23FF0E8415426E7E
:10300000FF0E8515436E7F0E8615446E000E8715E4
:10301000456E000E4210846F000E4310856F800EC7
:103020004410866F000E4510876F7CA11AEF18F0D0
:103030001CEF18F024EF18F0845184278551852364
:1030400086518623875187237F357F337E337D33B7
:103050007C3384518427855185238651862387516B
:103060008723000E646F000E656F000E666F000E02
:10307000676F64C070F065C071F066C072F067C0C1
:1030800073F0000E806F000E816F000E826F010ED4
:10309000836F93EF18F064518025746F655181211F
:1030A000756F66518221766F67518321776F7451F6
:1030B000845D75518559765186598751800A426ED3
:1030C0007751800A4258D8A068EF18F06AEF18F0DC
:1030D00086EF18F074518025646F75518121656FFA
:1030E00076518221666F77518321676F7451845FB7
:1030F0007551855B7651865B7751875B8051702770
:103100008151712382517223835173238451842707
:10311000855185238651862387518723D890833311
:103120008233813380338051811182118311D8A47D
:103130009CEF18F09EEF18F04BEF18F084518511BA
:1031400086118711D8B4A7EF18F0A9EF18F00AEF8D
:1031500019F0000E786F000E796F800E7A6F3F0EB7
:103160007B6F78C032F079C033F07AC034F07BC026
:1031700035F0000E366E000E376E800E386E3F0E44
:10318000396EAFEC05F0D8A0C8EF18F0CAEF18F010
:103190000AEF19F0000E0001786F000E796F800EB3
:1031A0007A6F3F0E7B6F000E326E000E336E800E14
:1031B000346E3F0E356E78C036F079C037F07AC085
:1031C00038F07BC039F0AFEC05F0D8B0EAEF18F07A
:1031D000ECEF18F0F5EF18F0020E00017027000E6A
:1031E0007123722373230AEF19F0010E0001701589
:1031F000426E000E7115436E000E7215446E000E85
:103200007315456E4250702743507123445072230A
:103210004550732370C042F071C043F072C044F057
:1032200073C045F045344532443243324232000ED9
:1032300042240001846F000E4320856F000E44205D
:10324000866F3F0E4520876F7CC042F07DC043F003
:103250007EC044F07FC045F0170ED890423643360A
:1032600044364536E82E2DEF19F04250842743505E
:103270008523445086234550872384C06CF085C045
:103280006DF086C06EF087C06FF06CC078F06DC0D6
:1032900079F06EC07AF06FC07BF078C03EF079C0F4
:1032A0003FF07AC040F07BC041F01200B0C0B8F0EF
:1032B000B1C0B9F0B2C0BAF0B3C0BBF0B8C0CEF084
:1032C000B9C0CFF0BAC0D0F0BBC0D1F0CEC054F07E
:1032D000CFC055F0D0C056F0D1C057F0200E76EFD9
:1032E00019F0D8905732563255325432E82E71EFD9
:1032F00019F054C0C8F055C0C9F00001D19FDB0ED1
:10330000CE5D0F0ECF59490ED0593F0ED159D8B0CE
:103310008CEF19F08EEF19F0B7EF19F0800ED05D39
:10332000390ED159D8B097EF19F099EF19F0A3EFF2
:1033300019F0000EB06F000EB16F800EB26F3F0E2D
:10334000B36F20EF1CF0B0C02AF0B1C02BF0B2C0B8
:103350002CF0B3C02DF015EC08F02AC0B0F02BC053
:10336000B1F02CC0B2F02DC0B3F020EF1CF0D20EA3
:10337000CE5D530ECF597B0ED059400ED159D8B0E7
:10338000C4EF19F0C6EF19F08FEF1AF0E40ECE5D1E
:10339000CB0ECF59160ED059400ED159D8A0D3EF2D
:1033A00019F0D5EF19F032EF1AF0C851C911D8A4AD
:1033B000DCEF19F0DEEF19F0FAEF19F0B0C001F010
:1033C000B1C002F0B2C003F0B3C004F0DB0E056E72
:1033D0000F0E066E490E076EC00E086E95EC14F0C7
:1033E00001C0BCF002C0BDF003C0BEF004C0BFF01D
:1033F00014EF1AF0B0C001F0B1C002F0B2C003F097
:10340000B3C004F0DB0E056E0F0E066E490E076E9C
:10341000400E086E95EC14F001C0BCF002C0BDF087
:1034200003C0BEF004C0BFF0BCC02AF0BDC02BF08A
:10343000BEC02CF0BFC02DF015EC08F02AC046F03D
:103440002BC047F02CC048F02DC049F00DEC02F025
:1034500046C0B0F047C0B1F048C0B2F049C0B3F0C8
:1034600020EF1CF0C851C911D8B439EF1AF03BEF66
:103470001AF069EF1AF0B0C001F0B1C002F0B2C0AA
:1034800003F0B3C004F0DB0E056E0F0E066EC90E1E
:10349000076E3F0E086E95EC14F001C0C4F002C038
:1034A000C5F003C0C6F004C0C7F0C4C04AF0C5C030
:1034B0004BF0C6C04CF0C7C04DF014EC09F04AC048
:1034C000B0F04BC0B1F04CC0B2F04DC0B3F020EF43
:1034D0001CF0DB0E2A6E0F0E2B6EC90E2C6E3F0EEB
:1034E0002D6EB0C02EF0B1C02FF0B2C030F0B3C01E
:1034F00031F029EC02F02AC04AF02BC04BF02CC06E
:103500004CF02DC04DF014EC09F04AC0B0F04BC0A7
:10351000B1F04CC0B2F04DC0B3F020EF1CF0D60EAD
:10352000CE5D310ECF59E20ED059400ED159D8B0F0
:103530009CEF1AF09EEF1AF04BEF1BF0E00ECE5D01
:10354000ED0ECF59AF0ED059400ED159D8A0ABEFE8
:103550001AF0ADEF1AF000EF1BF0C851C911D8A452
:10356000B4EF1AF0B6EF1AF0D2EF1AF0B0C001F0D3
:10357000B1C002F0B2C003F0B3C004F0DB0E056EC0
:103580000F0E066EC90E076EC00E086E95EC14F095
:1035900001C0C0F002C0C1F003C0C2F004C0C3F05B
:1035A000ECEF1AF0B0C001F0B1C002F0B2C003F00D
:1035B000B3C004F0DB0E056E0F0E066EC90E076E6B
:1035C000400E086E95EC14F001C0C0F002C0C1F0CE
:1035D00003C0C2F004C0C3F0C0C02AF0C1C02BF0C9
:1035E000C2C02CF0C3C02DF015EC08F02AC0B0F01A
:1035F0002BC0B1F02CC0B2F02DC0B3F020EF1CF006
:10360000C851C911D8B407EF1BF009EF1BF02FEF19
:103610001BF0E40E2A6ECB0E2B6E960E2C6EC00E97
:103620002D6EB0C02EF0B1C02FF0B2C030F0B3C0DC
:1036300031F029EC02F02AC04AF02BC04BF02CC02C
:103640004CF02DC04DF014EC09F04AC0B0F04BC066
:10365000B1F04CC0B2F04DC0B3F020EF1CF0B0C0E0
:1036600001F0B1C002F0B2C003F0B3C004F0E40E48
:10367000056ECB0E066E960E076EC00E086E95ECAC
:1036800014F001C0C4F002C0C5F003C0C6F004C00D
:10369000C7F055EF1AF0800ED05D7F0ED159D8A03B
:1036A00054EF1BF056EF1BF072EF1BF0B0C02AF086
:1036B000B1C02BF0B2C02CF0B3C02DF0B0C02EF0D2
:1036C000B1C02FF0B2C030F0B3C031F029EC02F03D
:1036D0002AC0B0F02BC0B1F02CC0B2F02DC0B3F0B6
:1036E00020EF1CF0B0C08CF0B1C08DF0B2C08EF0F5
:1036F000B3C08FF0CA0E906F000E916F4FEC12F0B6
:1037000000018CC0B4F08DC0B5F0000EB5BFFF0E47
:10371000B66FB76FF0EF1BF0CAC02AF0CBC02BF02A
:10372000CCC02CF0CDC02DF015EC08F02AC0B0F0C4
:103730002BC0B1F02CC0B2F02DC0B3F020EF1CF0C4
:10374000CAC046F0CBC047F0CCC048F0CDC049F06D
:103750000DEC02F046C04AF047C04BF048C04CF0B8
:1037600049C04DF014EC09F04AC0B0F04BC0B1F0C4
:103770004CC0B2F04DC0B3F020EF1CF0CAC02AF02C
:10378000CBC02BF0CCC02CF0CDC02DF015EC08F048
:103790002AC046F02BC047F02CC048F02DC049F09D
:1037A0000DEC02F046C0B0F047C0B1F048C0B2F036
:1037B00049C0B3F020EF1CF0CAC04AF0CBC04BF0B8
:1037C000CCC04CF0CDC04DF014EC09F04AC0B0F0C4
:1037D0004BC0B1F04CC0B2F04DC0B3F020EF1CF0C4
:1037E000030EB415546E000EB515556E000EB615C9
:1037F000566E000EB715576E5750000AD8B419EF21
:103800001CF0DCEF1BF05550000AD8B40AEF1CF096
:10381000DCEF1BF05450000AD8B48CEF1BF0010A07
:10382000D8B4A0EF1BF0030AD8B4BEEF1BF0DCEF56
:103830001BF05650000AD8B403EF1CF0DCEF1BF06D
:103840001200B0C0B8F0B1C0B9F0B2C0BAF0B3C0A5
:10385000BBF0B8C0CEF0B9C0CFF0BAC0D0F0BBC09A
:10386000D1F0CEC054F0CFC055F0D0C056F0D1C08A
:1038700057F0200E41EF1CF0D89057325632553297
:103880005432E82E3CEF1CF054C0C4F055C0C5F0D3
:103890000001D19FDB0ECE5D0F0ECF59490ED059DE
:1038A0003F0ED159D8B057EF1CF059EF1CF082EF02
:1038B0001CF0800ED05D390ED159D8B062EF1CF0EB
:1038C00064EF1CF06EEF1CF0B0C0B0F0B1C0B1F00E
:1038D000B2C0B2F0B3C0B3F0FDEF1EF0B0C04AF01A
:1038E000B1C04BF0B2C04CF0B3C04DF014EC09F0D5
:1038F0004AC0B0F04BC0B1F04CC0B2F04DC0B3F014
:10390000FDEF1EF0D20ECE5D530ECF597B0ED05977
:10391000400ED159D8B08FEF1CF091EF1CF076EF2C
:103920001DF0E40ECE5DCB0ECF59160ED059400ED1
:10393000D159D8B09EEF1CF0A0EF1CF00FEF1DF096
:10394000C451C511D8B4A7EF1CF0A9EF1CF0E1EFEA
:103950001CF0DB0E056E0F0E066EC90E076E3F0ED5
:10396000086EB0C001F0B1C002F0B2C003F0B3C045
:1039700004F095EC14F001C0C6F002C0C7F003C01B
:10398000C8F004C0C9F0C6C02AF0C7C02BF0C8C038
:103990002CF0C9C02DF015EC08F02AC046F02BC061
:1039A00047F02CC048F02DC049F00DEC02F046C0A5
:1039B000B0F047C0B1F048C0B2F049C0B3F0FDEF7D
:1039C0001EF0B0C001F0B1C002F0B2C003F0B3C04D
:1039D00004F0DB0E056E0F0E066EC90E076EBF0EED
:1039E000086E95EC14F001C0C6F002C0C7F003C029
:1039F000C8F004C0C9F0C6C02AF0C7C02BF0C8C0C8
:103A00002CF0C9C02DF015EC08F02AC0B0F02BC086
:103A1000B1F02CC0B2F02DC0B3F0FDEF1EF0C451D8
:103A2000C511D8A416EF1DF018EF1DF03EEF1DF0E4
:103A3000DB0E056E0F0E066E490E076EC00E086E89
:103A4000B0C001F0B1C002F0B2C003F0B3C004F0E6
:103A500095EC14F001C046F002C047F003C048F0F6
:103A600004C049F00DEC02F046C0BCF047C0BDF008
:103A700048C0BEF049C0BFF062EF1DF0DB0E056E1E
:103A80000F0E066E490E076E400E086EB0C001F0B4
:103A9000B1C002F0B2C003F0B3C004F095EC14F072
:103AA00001C046F002C047F003C048F004C049F02E
:103AB0000DEC02F046C0BCF047C0BDF048C0BEF0FF
:103AC00049C0BFF0BCC04AF0BDC04BF0BEC04CF016
:103AD000BFC04DF014EC09F04AC0B0F04BC0B1F0DB
:103AE0004CC0B2F04DC0B3F0FDEF1EF0D60ECE5D6F
:103AF000310ECF59E20ED059400ED159D8B083EFD4
:103B00001DF085EF1DF028EF1EF0E00ECE5DED0EEE
:103B1000CF59AF0ED059400ED159D8B092EF1DF009
:103B200094EF1DF0D5EF1DF0C451C511D8B49BEF33
:103B30001DF09DEF1DF0B9EF1DF0B0C001F0B1C058
:103B400002F0B2C003F0B3C004F0E40E056ECB0E79
:103B5000066E960E076E400E086E95EC14F001C0CE
:103B6000C6F002C0C7F003C0C8F004C0C9F0FBEF44
:103B70001CF0E40E056ECB0E066E960E076EC00EA0
:103B8000086EB0C001F0B1C002F0B2C003F0B3C023
:103B900004F095EC14F001C0C6F002C0C7F003C0F9
:103BA000C8F004C0C9F0C3EF1CF0C451C511D8A4BB
:103BB000DCEF1DF0DEEF1DF0FAEF1DF0B0C001F0FC
:103BC000B1C002F0B2C003F0B3C004F0DB0E056E6A
:103BD0000F0E066EC90E076EC00E086E95EC14F03F
:103BE00001C0C0F002C0C1F003C0C2F004C0C3F005
:103BF00014EF1EF0B0C001F0B1C002F0B2C003F08B
:103C0000B3C004F0DB0E056E0F0E066EC90E076E14
:103C1000400E086E95EC14F001C0C0F002C0C1F077
:103C200003C0C2F004C0C3F0C0C04AF0C1C04BF032
:103C3000C2C04CF0C3C04DF014EC09F04AC0B0F063
:103C40004BC0B1F04CC0B2F04DC0B3F0FDEF1EF070
:103C5000800ED05D7F0ED159D8A031EF1EF033EF2A
:103C60001EF04FEF1EF0B0C02AF0B1C02BF0B2C072
:103C70002CF0B3C02DF0B0C02EF0B1C02FF0B2C008
:103C800030F0B3C031F029EC02F02AC0B0F02BC004
:103C9000B1F02CC0B2F02DC0B3F0FDEF1EF0B0C0FB
:103CA0008CF0B1C08DF0B2C08EF0B3C08FF0CA0EF0
:103CB000906F000E916F4FEC12F000018CC0B4F0C9
:103CC0008DC0B5F0000EB5BFFF0EB66FB76FCDEF6C
:103CD0001EF0CAC04AF0CBC04BF0CCC04CF0CDC0F7
:103CE0004DF014EC09F04AC0B0F04BC0B1F04CC03C
:103CF000B2F04DC0B3F0FDEF1EF0CAC02AF0CBC049
:103D00002BF0CCC02CF0CDC02DF015EC08F02AC063
:103D1000B0F02BC0B1F02CC0B2F02DC0B3F0FDEF6D
:103D20001EF0CAC046F0CBC047F0CCC048F0CDC0B2
:103D300049F00DEC02F046C04AF047C04BF048C0D5
:103D40004CF049C04DF014EC09F04AC0B0F04BC043
:103D5000B1F04CC0B2F04DC0B3F0FDEF1EF0CAC0E0
:103D60002AF0CBC02BF0CCC02CF0CDC02DF015EC40
:103D700008F02AC046F02BC047F02CC048F02DC0F8
:103D800049F00DEC02F046C0B0F047C0B1F048C0B9
:103D9000B2F049C0B3F0FDEF1EF0030EB415546E3F
:103DA000000EB515556E000EB615566E000EB71501
:103DB000576E5750000AD8B4F6EF1EF0AFEF1EF062
:103DC0005550000AD8B4E7EF1EF0AFEF1EF0545084
:103DD000000AD8B469EF1EF0010AD8B47DEF1EF0D6
:103DE000030AD8B491EF1EF0AFEF1EF05650000A50
:103DF000D8B4E0EF1EF0AFEF1EF012009EEC02F020
:103E0000F00EC116CF0EC116C30EC216C292C290DA
:103E1000C050C70B1009C06EC050F80B0509C06E2A
:103E2000C08E9468C30EC216C280C282C2B21BEF9B
:103E30001FF01DEF1FF016EF1FF0C290C450FF0DD2
:103E4000F3CF5CF0F4CF5DF0C3505C26000E5D2232
:103E50005CC0FCF15DC0FDF10101000EFDBFFF0E75
:103E6000FE6FFF6FFCC11BF0FDC11CF0FEC11DF019
:103E7000FFC11EF0000E1F6E000E206E000E216EA0
:103E8000000E226EFF0E236E030E246E000E256EB2
:103E9000000E266E000E276E000E286E000E296E94
:103EA000000E2A6E640E2B6E000E2C6E000E2D6E10
:103EB000000E2E6EA9EC03F01BC0FCF11CC0FDF13E
:103EC0001DC0FEF11EC0FFF1000E096E000EE6ECF3
:103ED00003F0D80E2A6E7F0E2B6EFCC12CF0FDC1B4
:103EE0002DF0FEC12EF0FFC12FF046EC0EF0060EB5
:103EF0005C6E300EE82EFED75C2EFCD700D0C25090
:103F0000C30B0409C26EC280C282C2B28AEF1FF024
:103F10008CEF1FF085EF1FF0C290C450FF0DF3CF60
:103F20005CF0F4CF5DF0C3505C26000E5D225CC0F7
:103F300020F25DC021F20201000E21BFFF0E226FB0
:103F4000236F20C21BF021C21CF022C21DF023C22D
:103F50001EF0000E1F6E000E206E000E216E000E71
:103F6000226EFF0E236E030E246E000E256E000ED1
:103F7000266E000E276E000E286E000E296E000EB3
:103F80002A6E5A0E2B6E000E2C6E000E2D6E000E39
:103F90002E6EA9EC03F01BC020F21CC021F21DC044
:103FA00022F21EC023F220C201F021C202F022C27E
:103FB00003F023C204F0000E3BEC07F001C011F047
:103FC00002C012F003C013F004C014F0350E156ED9
:103FD000FA0E166E8E0E176E3C0E186E3AEC10F03E
:103FE00011C0F8F012C0F9F013C0FAF014C0FBF0E1
:103FF000EB0E2A6E7F0E2B6E20C22CF021C22DF00C
:1040000022C22EF023C22FF046EC0EF0060E5C6E9C
:10401000300EE82EFED75C2EFCD700D082AC13EF1A
:1040200020F015EF20F012EF1FF035EC03F0F8C090
:10403000B0F0F9C0B1F0FAC0B2F0FBC0B3F021ECBF
:104040001CF0B0C0BCF1B1C0BDF1B2C0BEF1B3C094
:10405000BFF1CD0E0001D66FCC0ED76F1C0ED86FFE
:10406000410ED96FBCC115F0BDC116F0BEC117F02D
:10407000BFC118F0D8900101FC35016EFD35026E0C
:10408000FE35036EFF35046E000E3BEC07F001C0F9
:1040900011F002C012F003C013F004C014F03AECA7
:1040A00010F011C0D2F012C0D3F013C0D4F014C07D
:1040B000D5F078EC0CF0D2C088F0D3C089F0D4C031
:1040C0008AF0D5C08BF031EC06F088C008F289C0C8
:1040D00009F28AC00AF28BC00BF2F8C0B0F0F9C046
:1040E000B1F0FAC0B2F0FBC0B3F056EC19F0B0C0BA
:1040F000E2F1B1C0E3F1B2C0E4F1B3C0E5F1E2C175
:1041000015F0E3C116F0E4C117F0E5C118F0FCC1E9
:1041100001F0FDC102F0FEC103F0FFC104F0000E8A
:104120003BEC07F001C011F002C012F003C013F025
:1041300004C014F03AEC10F011C0E6F112C0E7F13F
:1041400013C0E8F114C0E9F108C201F009C202F09D
:104150000AC203F00BC204F0000E3BEC07F001C0F2
:1041600015F002C016F003C017F004C018F0E6C145
:1041700011F0E7C112F0E8C113F0E9C114F03AEC14
:1041800010F011C088F012C089F013C08AF014C07A
:104190008BF031EC06F088C010F289C011F28AC0B1
:1041A00012F28BC013F208C25CF009C25DF00AC2C1
:1041B0005EF00BC25FF0D8905F325E325D325C32EF
:1041C0005CC001F05DC002F05EC003F05FC004F0AF
:1041D000000E3BEC07F001C0EAF102C0EBF103C0B6
:1041E000ECF104C0EDF1000E0001EB6F000EEC6F7E
:1041F000000EED6F400EEE6FEAC1E7F0EBC1E8F0A4
:10420000ECC1E9F0EDC1EAF08DEC25F0E7C0C0F1BA
:10421000E8C0C1F1E9C0C2F1EAC0C3F1F8C0B0F032
:10422000F9C0B1F0FAC0B2F0FBC0B3F021EC1CF061
:10423000B0C0C4F1B1C0C5F1B2C0C6F1B3C0C7F1DE
:10424000C4C115F0C5C116F0C6C117F0C7C118F03A
:10425000FCC101F0FDC102F0FEC103F0FFC104F09A
:10426000000E3BEC07F001C011F002C012F003C0D9
:1042700013F004C014F03AEC10F011C0C8F112C0F1
:10428000C9F113C0CAF114C0CBF1CD0E156ECC0E1E
:10429000166E9C0E176E400E186EC0C111F0C1C193
:1042A00012F0C2C113F0C3C114F03AEC10F011C007
:1042B0002EF012C02FF013C030F014C031F008C23D
:1042C0005CF009C25DF00AC25EF00BC25FF0D890EC
:1042D0005F325E325D325C325CC001F05DC002F084
:1042E0005EC003F05FC004F0000E3BEC07F001C0BD
:1042F00015F002C016F003C017F004C018F0C8C1D2
:1043000011F0C9C112F0CAC113F0CBC114F03AECDC
:1043100010F011C02AF012C02BF013C02CF014C002
:104320002DF029EC02F02AC088F02BC089F02CC0B7
:104330008AF02DC08BF031EC06F088C00CF289C0F9
:104340000DF28AC00EF28BC00FF2000E096E030E42
:10435000E6EC03F0000E0101F16F500EF06F000E5D
:10436000DD6F070EDC6FF0C109F0DC51E6EC03F005
:10437000F70E2A6E7F0E2B6E46EC0EF0000E01013A
:10438000DF6F320EDE6F000EEF6F060EEE6FEFBFC7
:10439000D3EF21F0EF5109E1080EEE5DD8A0D3EF85
:1043A00021F0D5EF21F0D7EF21F0E7EF21F0DEC1CA
:1043B00009F0EE51E6EC03F0FC0E2A6E7F0E2B6E38
:1043C00046EC0EF00101EE4BEF2BC7EF21F0000E93
:1043D000F66F000EF76F000EF86F000EF96F000E0B
:1043E000DB6F000EDA6FF8C0B0F0F9C0B1F0FAC0C0
:1043F000B2F0FBC0B3F056EC19F0B0C0E2F1B1C0BE
:10440000E3F1B2C0E4F1B3C0E5F1E2C115F0E3C1FC
:1044100016F0E4C117F0E5C118F0FCC101F0FDC1D0
:1044200002F0FEC103F0FFC104F0000E3BEC07F008
:1044300001C011F002C012F003C013F004C014F068
:104440003AEC10F011C0E6F112C0E7F113C0E8F148
:1044500014C0E9F1F6C115F0F7C116F0F8C117F074
:10446000F9C118F0E6C111F0E7C112F0E8C113F08C
:10447000E9C114F03AEC10F011C088F012C089F0D4
:1044800013C08AF014C08BF031EC06F088C01CF227
:1044900089C01DF28AC01EF28BC01FF2000E0001FF
:1044A000EB6F000EEC6F000EED6F400EEE6FF6C17D
:1044B000E7F0F7C1E8F0F8C1E9F0F9C1EAF08DECF6
:1044C00025F0E7C0CCF1E8C0CDF1E9C0CEF1EAC0FB
:1044D000CFF1F8C0B0F0F9C0B1F0FAC0B2F0FBC053
:1044E000B3F021EC1CF0B0C0D0F1B1C0D1F1B2C03A
:1044F000D2F1B3C0D3F1D0C115F0D1C116F0D2C101
:1045000017F0D3C118F0FCC101F0FDC102F0FEC1EB
:1045100003F0FFC104F0000E3BEC07F001C011F006
:1045200002C012F003C013F004C014F03AEC10F013
:1045300011C0D4F112C0D5F113C0D6F114C0D7F117
:10454000CD0E156ECC0E166E9C0E176E400E186EAC
:10455000CCC111F0CDC112F0CEC113F0CFC114F017
:104560003AEC10F011C02EF012C02FF013C030F052
:1045700014C031F0F6C115F0F7C116F0F8C117F00C
:10458000F9C118F0D4C111F0D5C112F0D6C113F0A1
:10459000D7C114F03AEC10F011C02AF012C02BF081
:1045A00013C02CF014C02DF029EC02F02AC088F0C2
:1045B0002BC089F02CC08AF02DC08BF031EC06F0B6
:1045C00088C018F289C019F28AC01AF28BC01BF297
:1045D000010E02010825016E000E0921026E000E77
:1045E0000A21036E000E0B21046E000E3BEC07F057
:1045F00001C032F002C033F003C034F004C035F023
:10460000F6C136F0F7C137F0F8C138F0F9C139F02A
:10461000AFEC05F0D8A00FEF23F011EF23F0F3EF8C
:1046200021F00201185119111A111B11D8A41BEF06
:1046300023F01DEF23F025EF23F0000E186F000E7E
:10464000196F000E1A6F000E1B6F18C201F019C20D
:1046500002F01AC203F01BC204F03F0E056E000EFA
:10466000066E000E076E000E086E2CEC04F0015072
:1046700008080101FA6F0250D8A0E82A0008FB6F71
:10468000FBBF4CEF23F0FB5109E1080EFA5DD8A007
:104690004CEF23F04EEF23F052EF23F0000EFB6FB0
:1046A000070EFA6FFBBF59EF23F057EF23F05DEFD2
:1046B00023F0000EFB6F000EFA6F520E0001D66F52
:1046C000B80ED76FFE0ED86F400ED96F1CC201F026
:1046D0001DC202F01EC203F01FC204F0000E3BEC2C
:1046E00007F001C0D2F002C0D3F003C0D4F004C080
:1046F000D5F078EC0CF0D2C088F0D3C089F0D4C0EB
:104700008AF0D5C08BF031EC06F088C0F4F189C096
:10471000F5F1000E0001D66F000ED76FFF0ED86FB7
:10472000400ED96F18C201F019C202F01AC203F08C
:104730001BC204F0000E3BEC07F001C0D2F002C037
:10474000D3F003C0D4F004C0D5F078EC0CF0D2C0A4
:104750002EF0D3C02FF0D4C030F0D5C031F0000E11
:104760002A6E000E2B6E7C0E2C6E420E2D6E29ECE6
:1047700002F02AC088F02BC089F02CC08AF02DC02E
:104780008BF031EC06F088C0D8F189C0D9F1FAC1BC
:104790005CF0FBC15DF0D8905C365D36D8905C363D
:1047A0005D36D8905C365D36D8C15EF0D9C15FF019
:1047B0005C505E5E5D505F5A080E5E240101F26F30
:1047C000000E5F20F36FF3BFEFEF23F0F35109E129
:1047D000080EF25DD8A0EFEF23F0F1EF23F0F5EF34
:1047E00023F0000EF36F070EF26FF3BFFCEF23F020
:1047F000FAEF23F000EF24F0000EF36F000EF26FDB
:10480000F2C101F0F3C102F0000E02BEFF0E036E12
:10481000046E010E3BEC07F001C0EAF102C0EBF1BF
:1048200003C0ECF104C0EDF1EAC1EBF0EBC1ECF038
:10483000ECC1EDF0EDC1EEF0000E0001E76F000EEF
:10484000E86F000EE96F400EEA6F8DEC25F0E7C0CF
:1048500088F0E8C089F0E9C08AF0EAC08BF031EC5A
:1048600006F088C0E0F189C0E1F10101FBBF42EF31
:1048700024F0FB5109E1070EFA5DD8A042EF24F0C5
:1048800044EF24F05FEF24F0E051E111D8A44BEFA6
:1048900024F04DEF24F05FEF24F0000E096E000EBF
:1048A000E6EC03F0F90E2A6E7F0E2B6EDAC12CF0C7
:1048B000DBC12DF046EC0EF00101DA4BDB2BF4C12D
:1048C00009F0FA51E6EC03F00101E05154EC01F07B
:1048D000050E0101F0255C6E000EF1215D6EF451B4
:1048E0005C5C5D50800A5E6EF551800A5E58D8B0FF
:1048F0007CEF24F07EEF24F0AAEF24F0F3BF8AEFE0
:1049000024F0F35109E1070EF25DD8A08AEF24F0FC
:104910008CEF24F0AAEF24F0FBBF98EF24F0FB51BA
:1049200009E1070EFA5DD8A098EF24F09AEF24F081
:10493000AAEF24F0C40E046E7B0E056E6DEC03F03E
:10494000000E066E030E056EC6EC01F049EC01F098
:1049500012EF1FF0F051F45DF551800A5C6EF151D9
:10496000800A5C58D8B0B7EF24F0B9EF24F0F5EF27
:1049700024F010C25CF011C25DF012C25EF013C2EE
:104980005FF0D8905F325E325D325C3202011C51C2
:104990005C5C1D515D581E515E581F515F58D8B068
:1049A000D4EF24F0D6EF24F0F5EF24F00101FBBFA3
:1049B000E3EF24F0FB5109E1070EFA5DD8A0E3EF25
:1049C00024F0E5EF24F0F5EF24F0F3BFF1EF24F04D
:1049D000F35109E1070EF25DD8A0F1EF24F0F3EFF7
:1049E00024F0F5EF24F09AEF24F00101DC51FA19DC
:1049F00007E1DD51FB19D8A400EF25F002EF25F007
:104A000038EF25F0F451F05DF151800A5C6EF551FC
:104A1000800A5C58D8B00FEF25F011EF25F038EF81
:104A200025F0050EF0255C6E000EF1215D6E5C50E8
:104A3000F45DF551800A5E6E5D50800A5E58D8B014
:104A400024EF25F026EF25F038EF25F0000E0D6E4F
:104A5000000E0C6E000E0F6E080E0E6ECCEC02F007
:104A6000C40E046E770E056E6DEC03F0A0EF24F01B
:104A7000DE51F41907E1DF51F519D8A442EF25F012
:104A800044EF25F054EF25F0FBBF50EF25F0FB512C
:104A900009E1060EFA5DD8A050EF25F052EF25F09F
:104AA00054EF25F09AEF24F0000E046E640E036EAE
:104AB000B1EC01F0F6C101F0F7C102F0F8C103F06A
:104AC000F9C104F0CD0E056ECC0E066ECC0E076E4D
:104AD0003D0E086E95EC14F001C0F6F102C0F7F13E
:104AE00003C0F8F104C0F9F1F6C188F0F7C189F00C
:104AF000F8C18AF0F9C18BF031EC06F0000188C0F2
:104B000014F289C015F20201000E15BFFF0E166FD8
:104B1000176FF3EF21F000EF00F0E7C0B8F1E8C045
:104B2000B9F1E9C0BAF1EAC0BBF1B8C160F1B9C1ED
:104B300061F1BAC162F1BBC163F1EBC0B8F1ECC085
:104B4000B9F1EDC0BAF1EEC0BBF1B8C184F1B9C1A1
:104B500085F1BAC186F1BBC187F1FF0E0101601575
:104B6000A86FFF0E6115A96FFF0E6215AA6F7F0E69
:104B70006315AB6FFF0E8415986FFF0E8515996F47
:104B8000FF0E86159A6F7F0E87159B6F98519911AE
:104B90009A119B11D8A4CFEF25F0D1EF25F0DCEFCF
:104BA00025F0000E0001E76F000EE86F800EE96F40
:104BB0003F0EEA6F95EF3AF0800E621909E13F0E61
:104BC000631960116111D8A4E8EF25F0EAEF25F030
:104BD000F5EF25F0000E0001E76F000EE86F800E84
:104BE000E96F3F0EEA6F95EF3AF0ABBF06EF26F0A4
:104BF000A805000EA959800EAA597F0EAB59D8B04E
:104C000004EF26F006EF26F017EF26F09BBF15EF16
:104C100026F09805000E9959800E9A597F0E9B59DF
:104C2000D8A015EF26F017EF26F033EF26F0E7C0F7
:104C300001F0E8C002F0E9C003F0EAC004F0EBC004
:104C400005F0ECC006F0EDC007F0EEC008F095EC02
:104C500014F001C0E7F002C0E8F003C0E9F004C0BE
:104C6000EAF095EF3AF0000E506F000E516F000E13
:104C7000526F000E536F63BF42EF26F040EF26F0F5
:104C80000EEF27F09BBF4EEF26F0800E9A5D4B0E85
:104C90009B59D8A04EEF26F050EF26F05AEF26F0A1
:104CA000020E506F000E516F000E526F000E536FC8
:104CB0000EEF27F09BBF66EF26F0800E9A5D3F0E49
:104CC0009B59D8A066EF26F068EF26F00EEF27F08C
:104CD000170E0001EF6F98C1F0F099C1F1F09AC181
:104CE000F2F09BC1F3F0EF6778EF26F080EF26F04B
:104CF000F335F333F233F133F033EF2F73EF26F064
:104D0000810E0001F0250101A06FFF0E0001F121CD
:104D10000101A16FFF0E0001F2210101A26FFF0E40
:104D20000001F3210101A36FA05117080001EF6FEB
:104D300098C1F0F099C1F1F09AC1F2F09BC1F3F083
:104D4000EF67A5EF26F0ADEF26F0F335F333F2333E
:104D5000F133F033EF2FA0EF26F0F0C0ACF1F1C04B
:104D6000ADF1F2C0AEF1F3C0AFF10101A0511708EF
:104D70000001EF6FACC1F0F0ADC1F1F0AEC1F2F0E7
:104D8000AFC1F3F0EF2BCAEF26F0D890F037F13730
:104D9000F237F337EF2FC5EF26F0010198510001EC
:104DA000F01913E1010199510001F1190EE101011E
:104DB0009A510001F21909E101019B510001F31917
:104DC000D8A4E5EF26F0E7EF26F00EEF27F0010E6E
:104DD0000101AC150001EF6F000E0101AD150001DE
:104DE000F06F000E0101AE150001F16F000E010120
:104DF000AF150001F26FEF5102080101506F000E74
:104E00000001F0550101516F000E0001F155010143
:104E1000526F000E0001F2550101536F800E010127
:104E20009A1909E17F0E9B1998119911D8A41BEFCB
:104E300027F01DEF27F089EF27F0800EAA1909E16E
:104E40003F0EAB19A811A911D8A429EF27F02BEF19
:104E500027F036EF27F0000E0001E76F000EE86F35
:104E6000800EE96F3F0EEA6F95EF3AF0ABBF45EF6A
:104E700027F0A805000EA959800EAA593F0EAB597C
:104E8000D8A045EF27F047EF27F063EF27F087BF63
:104E90004EEF27F04CEF27F059EF27F0000E0001FE
:104EA000E76F000EE86F000EE96F000EEA6F95EFF6
:104EB0003AF0EBC0E7F0ECC0E8F0EDC0E9F0EEC08E
:104EC000EAF095EF3AF087BF6AEF27F068EF27F036
:104ED0007EEF27F0EBC046F0ECC047F0EDC048F0A5
:104EE000EEC049F00DEC02F046C0E7F047C0E8F034
:104EF00048C0E9F049C0EAF095EF3AF0000E000131
:104F0000E76F000EE86F000EE96F000EEA6F95EF95
:104F10003AF0800E9A1909E13F0E9B1998119911E8
:104F2000D8A495EF27F097EF27F0C5EF27F087BFBC
:104F30009EEF27F09CEF27F0BBEF27F0000E00015B
:104F4000D26F000ED36F800ED46F3F0ED56FE7C0C7
:104F5000D6F0E8C0D7F0E9C0D8F0EAC0D9F078ECD4
:104F60000CF0D2C0E7F0D3C0E8F0D4C0E9F0D5C06F
:104F7000EAF095EF3AF0E7C0E7F0E8C0E8F0E9C002
:104F8000E9F0EAC0EAF095EF3AF0400E8719841193
:104F900085118611D8A4CFEF27F0D1EF27F0EDEFE0
:104FA00027F0E7C011F0E8C012F0E9C013F0EAC042
:104FB00014F0E7C015F0E8C016F0E9C017F0EAC039
:104FC00018F03AEC10F011C0E7F012C0E8F013C08E
:104FD000E9F014C0EAF095EF3AF03F0E871984111A
:104FE00085118611D8A4F7EF27F0F9EF27F014EF19
:104FF00028F063BFFEEF27F000EF28F014EF28F051
:10500000E7C03EF0E8C03FF0E9C040F0EAC041F040
:10501000F5EC16F03EC0E7F03FC0E8F040C0E9F024
:1050200041C0EAF095EF3AF0E7C001F0E8C002F0C5
:10503000E9C003F0EAC004F0F3EC01F001C070F144
:1050400002C071F103C072F104C073F1800E01015E
:10505000AA190BE17F0EAB19A811A911D8B433EF2F
:1050600028F035EF28F04EEF28F0A851A911AA1129
:10507000AB11D8B43EEF28F040EF28F04EEF28F007
:10508000800EAA1909E13F0EAB19A811A911D8A4E5
:105090004CEF28F04EEF28F01AEF29F070C1B4F170
:1050A00071C1B5F172C1B6F173C1B7F187BF5DEFE0
:1050B00028F05BEF28F078EF28F0000E0001D26FA7
:1050C000000ED36F800ED46F3F0ED56FB4C1D6F0F3
:1050D000B5C1D7F0B6C1D8F0B7C1D9F078EC0CF0B3
:1050E000D2C0B4F1D3C0B5F1D4C0B6F1D5C0B7F1D8
:1050F000010163BF80EF28F07EEF28F010EF29F068
:10510000000EA8250001EF6F000E0101A92100018A
:10511000F06F800E0101AA210001F16FC00E0101A4
:10512000AB210001F26F010150510001EF11F36F4B
:10513000010151510001F011F46F010152510001C0
:10514000F111F56F010153510001F211F66FF351A6
:10515000F411F511F611D8A4B0EF28F0B2EF28F051
:10516000F2EF28F0B4C12EF0B5C12FF0B6C130F087
:10517000B7C131F0B4C12AF0B5C12BF0B6C12CF0E3
:10518000B7C12DF029EC02F02AC0D2F02BC0D3F029
:105190002CC0D4F02DC0D5F0B4C12EF0B5C12FF085
:1051A000B6C130F0B7C131F0B4C12AF0B5C12BF0AF
:1051B000B6C12CF0B7C12DF029EC02F02AC0D6F010
:1051C0002BC0D7F02CC0D8F02DC0D9F078EC0CF063
:1051D000D2C0B4F1D3C0B5F1D4C0B6F1D5C0B7F1E7
:1051E00010EF29F001015005511152115311D8A4AB
:1051F000FCEF28F0FEEF28F010EF29F0B4C146F0E4
:10520000B5C147F0B6C148F0B7C149F00DEC02F0A6
:1052100046C0B4F147C0B5F148C0B6F149C0B7F1D6
:10522000B4C1E7F0B5C1E8F0B6C1E9F0B7C1EAF042
:1052300095EF3AF0000E886F000E896F800E8A6F2E
:105240003F0E8B6F63BF29EF29F027EF29F087EF1F
:1052500029F05051511152115311D8A432EF29F0B5
:1052600034EF29F074EF29F0E7C02EF0E8C02FF0FA
:10527000E9C030F0EAC031F0E7C02AF0E8C02BF016
:10528000E9C02CF0EAC02DF029EC02F02AC0D2F0DF
:105290002BC0D3F02CC0D4F02DC0D5F0E7C02EF039
:1052A000E8C02FF0E9C030F0EAC031F0E7C02AF0E2
:1052B000E8C02BF0E9C02CF0EAC02DF029EC02F098
:1052C0002AC0D6F02BC0D7F02CC0D8F02DC0D9F012
:1052D00078EC0CF0D2C0E7F0D3C0E8F0D4C0E9F02D
:1052E000D5C0EAF095EF3AF0500551115211531123
:1052F000D8A47DEF29F07FEF29F087EF29F0000E89
:10530000886F000E896F800E8A6FBF0E8B6F9BBFF8
:1053100096EF29F09805000E9959000E9A594D0EF6
:105320009B59D8A096EF29F098EF29F01DEF2CF0AB
:10533000ABBFAAEF29F0F80EA85DFF0EA9597F0EAA
:10534000AA593F0EAB59D8B0A8EF29F0AAEF29F01F
:105350001DEF2AF087BFAFEF29F0B1EF29F0E7EF9B
:1053600029F0600E156E420E166EA20E176E0D0E0F
:10537000186E88C111F089C112F08AC113F08BC177
:1053800014F03AEC10F011C0A4F112C0A5F113C052
:10539000A6F114C0A7F1A4C111F0A5C112F0A6C1D5
:1053A00013F0A7C114F0600E156E420E166EA20E19
:1053B000176E0D0E186E3AEC10F011C0E7F012C027
:1053C000E8F013C0E9F014C0EAF095EF3AF0CA0E25
:1053D000156EF20E166E490E176E710E186E88C19C
:1053E00011F089C112F08AC113F08BC114F03AECAC
:1053F00010F011C0A4F112C0A5F113C0A6F114C0A1
:10540000A7F1A4C111F0A5C112F0A6C113F0A7C164
:1054100014F0CA0E156EF20E166E490E176E710E4E
:10542000186E3AEC10F011C0E7F012C0E8F013C0AB
:10543000E9F014C0EAF095EF3AF0ABBF2DEF2AF097
:10544000080EA85D000EA959800EAA593F0EAB594F
:10545000D8A02DEF2AF02FEF2AF0AAEF2AF087BF6D
:105460003EEF2AF087518611851106E18405D8B0F8
:105470003CEF2AF03EEF2AF074EF2AF0600E156E32
:10548000420E166EA20E176E0D0E186E88C111F028
:1054900089C112F08AC113F08BC114F03AEC10F0FC
:1054A00011C0A4F112C0A5F113C0A6F114C0A7F158
:1054B000A4C111F0A5C112F0A6C113F0A7C114F048
:1054C000600E156E420E166EA20E176E0D0E186E41
:1054D0003AEC10F011C0E7F012C0E8F013C0E9F0A8
:1054E00014C0EAF095EF3AF0CA0E156EF20E166E81
:1054F000490E176E710E186E88C111F089C112F035
:105500008AC113F08BC114F03AEC10F011C0A4F171
:1055100012C0A5F113C0A6F114C0A7F1A4C111F0E7
:10552000A5C112F0A6C113F0A7C114F0CA0E156EE2
:10553000F20E166E490E176E710E186E3AEC10F0E0
:1055400011C0E7F012C0E8F013C0E9F014C0EAF0AF
:1055500095EF3AF070C101F071C102F072C103F031
:1055600073C104F0000E056E000E066E800E076E0D
:10557000BF0E086E95EC14F001C0B0F102C0B1F19D
:1055800003C0B2F104C0B3F1000E156E000E166E2A
:10559000800E176E3E0E186EB0C111F0B1C112F040
:1055A000B2C113F0B3C114F03AEC10F011C02EF0F8
:1055B00012C02FF013C030F014C031F0AB0E2A6EC1
:1055C000AA0E2B6EAA0E2C6E3E0E2D6E29EC02F04A
:1055D0002AC0A4F12BC0A5F12CC0A6F12DC0A7F1C3
:1055E000B0C115F0B1C116F0B2C117F0B3C118F0D7
:1055F000B0C111F0B1C112F0B2C113F0B3C114F0D7
:105600003AEC10F011C054F112C055F113C056F12C
:1056100014C057F1B0C115F0B1C116F0B2C117F006
:10562000B3C118F0A4C111F0A5C112F0A6C113F0C6
:10563000A7C114F03AEC10F011C02EF012C02FF0F8
:1056400013C030F014C031F0000E2A6E000E2B6E25
:10565000000E2C6E3F0E2D6E29EC02F02AC048F190
:105660002BC049F12CC04AF12DC04BF154C111F0AF
:1056700055C112F056C113F057C114F048C115F0CE
:1056800049C116F04AC117F04BC118F03AEC10F0BE
:1056900011C044F112C045F113C046F114C047F1E6
:1056A000B0C111F0B1C112F0B2C113F0B3C114F026
:1056B000000E156EAA0E166EB80E176E3F0E186EFF
:1056C0003AEC10F011C074F112C075F113C076F10C
:1056D00014C077F1700E156EA50E166EEC0E176ED7
:1056E000360E186EB0C111F0B1C112F0B2C113F094
:1056F000B3C114F03AEC10F011C02AF012C02BF034
:1057000013C02CF014C02DF03B0E156EAA0E166EB1
:10571000B80E176E3F0E186E44C111F045C112F05D
:1057200046C113F047C114F03AEC10F011C02EF04E
:1057300012C02FF013C030F014C031F029EC02F089
:105740002AC078F12BC079F12CC07AF12DC07BF101
:1057500074C101F075C102F076C103F077C104F0A5
:1057600078C105F079C106F07AC107F07BC108F075
:1057700095EC14F001C080F102C081F103C082F108
:1057800004C083F180C1B8F181C1B9F182C1BAF11D
:1057900083C1BBF1B8C190F1B9C191F1BAC192F125
:1057A000BBC193F1000E01019015B86FF00E911579
:1057B000B96FFF0E9215BA6FFF0E9315BB6FB8C18C
:1057C00080F1B9C181F1BAC182F1BBC183F174C169
:1057D0002EF075C12FF076C130F077C131F080C165
:1057E0002AF081C12BF082C12CF083C12DF029EC6D
:1057F00002F02AC094F12BC095F12CC096F12DC077
:1058000097F178C12AF079C12BF07AC12CF07BC1D5
:105810002DF094C12EF095C12FF096C130F097C1B4
:1058200031F029EC02F02AC01CF12BC01DF12CC074
:105830001EF12DC01FF18BEF33F0000E7C6F000EB8
:105840007D6F000E7E6F000E7F6FABBF33EF2CF0CD
:10585000AB5107E1800EAA5DD8B031EF2CF033EFE9
:105860002CF066EF2CF070C111F071C112F072C112
:1058700013F073C114F0000E156E000E166E800E3C
:10588000176E4B0E186E3AEC10F011C070F112C08A
:1058900071F113C072F114C073F1E80E01017C279D
:1058A000FF0E7D23FF0E7E23FF0E7F2370C1B8F114
:1058B00071C1B9F172C1BAF173C1BBF1B8C1A8F13C
:1058C000B9C1A9F1BAC1AAF1BBC1ABF1170E000170
:1058D000EF6FA8C1F0F0A9C1F1F0AAC1F2F0ABC11D
:1058E000F3F0EF6776EF2CF07EEF2CF0F335F33327
:1058F000F233F133F033EF2F71EF2CF0810E000112
:10590000F025F46FFF0EF121F56FFF0EF221F66F17
:10591000FF0EF321F76FF45101017C270001F551CF
:1059200001017D230001F65101017E230001F751A1
:1059300001017F23FF0EA815AC6FFF0EA915AD6FF7
:105940007F0EAA15AE6F000EAB15AF6F000EAC1137
:10595000A86F000EAD11A96F800EAE11AA6F3F0E99
:10596000AF11AB6FAFBFC4EF2CF0AF510BE1720EB4
:10597000AC5DC40EAD591C0EAE59D8B0C2EF2CF0C0
:10598000C4EF2CF0CEEF2CF0000EA06F000EA16F34
:10599000000EA26F000EA36F00EF2DF0AFBFE0EF7F
:1059A0002CF0AF510BE1D70EAC5DB30EAD595D0ECF
:1059B000AE59D8B0DEEF2CF0E0EF2CF0EAEF2CF08F
:1059C000010EA06F000EA16F000EA26F000EA36F5C
:1059D00000EF2DF0000EA06F000EA16F000EA26F61
:1059E000000EA36F010E7C27000E7D237E237F23F4
:1059F000000EA827000EA923800EAA23FF0EAB23BA
:105A0000A8C1B8F1A9C1B9F1AAC1BAF1ABC1BBF142
:105A1000B8C170F1B9C171F1BAC172F1BBC173F112
:105A200070C12AF071C12BF072C12CF073C12DF03E
:105A3000A0C1EFF0A1C1F0F00001D890EF37F0372E
:105A4000D890EF37F037C40EEF25F66E7F0EF021B9
:105A5000F76E0900F5CF2EF00900F5CF2FF0090001
:105A6000F5CF30F00A00F5CF31F029EC02F02AC072
:105A700074F12BC075F12CC076F12DC077F1000EBA
:105A80000001D26F000ED36F800ED46F3F0ED56F22
:105A900070C105F071C106F072C107F073C108F062
:105AA000A0C1EFF0A1C1F0F0D890EF37F037D89057
:105AB000EF37F037C40EEF25F66E7F0EF021F76E4C
:105AC0000900F5CF01F00900F5CF02F00900F5CF8C
:105AD00003F00A00F5CF04F095EC14F001C0D6F005
:105AE00002C0D7F003C0D8F004C0D9F078EC0CF0B5
:105AF000D2C078F1D3C079F1D4C07AF1D5C07BF1AE
:105B000074C111F075C112F076C113F077C114F0B1
:105B100078C115F079C116F07AC117F07BC118F081
:105B20003AEC10F011C05CF112C05DF113C05EF1EF
:105B300014C05FF15CC16CF15DC16DF15EC16EF1CD
:105B40005FC16FF16CC1B8F16DC1B9F16EC1BAF14D
:105B50006FC1BBF1B8C190F1B9C191F1BAC192F175
:105B6000BBC193F1000E01019015B86FF00E9115B5
:105B7000B96FFF0E9215BA6FFF0E9315BB6FB8C1C8
:105B80006CF1B9C16DF1BAC16EF1BBC16FF1A8C1C1
:105B9000EFF0A9C1F0F0AAC1F1F0ABC1F2F0000141
:105BA000F235F233F133F033EF33000EEF15F36FCC
:105BB000F00EF015F46FFF0EF115F56FFF0EF215F4
:105BC000F66F000EF3110101906F000E0001F41149
:105BD0000101916F000E0001F5110101926F200E7D
:105BE0000001F6110101936FA0C1EFF0A1C1F0F027
:105BF000A2C1F1F0A3C1F2F0150ED8900001EF3769
:105C0000F037F137F237E82EFDEF2DF0010190511A
:105C10000001EF25F36F010191510001F021F46FB4
:105C2000010192510001F121F56F01019351000131
:105C3000F221F66F000EF3250101B86F000E00018E
:105C4000F4210101B96F400E0001F5210101BA6F85
:105C5000000E0001F6210101BB6FB8C168F1B9C1A6
:105C600069F1BAC16AF1BBC16BF1A0C1EFF0A1C18A
:105C7000F0F00001D890EF37F037D890EF37F037D9
:105C8000C40EEF25F66E7F0EF021F76E0900F5CFFA
:105C90002EF00900F5CF2FF00900F5CF30F00A0003
:105CA000F5CF31F068C12AF069C12BF06AC12CF040
:105CB0006BC12DF029EC02F02AC094F12BC095F1B4
:105CC0002CC096F12DC097F170C12AF071C12BF054
:105CD00072C12CF073C12DF094C12EF095C12FF03C
:105CE00096C130F097C131F029EC02F02AC034F1AE
:105CF0002BC035F12CC036F12DC037F168C115F03D
:105D000069C116F06AC117F06BC118F06CC111F0CF
:105D10006DC112F06EC113F06FC114F03AEC10F0C7
:105D200011C02EF012C02FF013C030F014C031F0AB
:105D300074C12AF075C12BF076C12CF077C12DF01B
